:020000040800F2
:100000005819002089010008A70D00089F0D00085D
:10001000A30D000821060008811B00080000000055
:10002000000000000000000000000000091A0008A5
:10003000C5070008000000002D0E00081D1B000869
:10004000A3010008A3010008A3010008A301000800
:10005000A3010008A3010008A3010008C9070008C4
:10006000A3010008A3010008A3010008A3010008E0
:10007000A3010008A3010008A3010008A3010008D0
:10008000A3010008A3010008A3010008A3010008C0
:10009000A3010008A3010008A3010008A3010008B0
:1000A000A3010008A3010008A3010008A3010008A0
:1000B000A3010008A3010008A3010008A301000890
:1000C000A3010008A3010008A3010008A301000880
:1000D000A3010008A3010008A3010008A301000870
:1000E000A3010008A3010008A301000800F002F822
:1000F00000F03AF80AA090E8000C82448344AAF188
:100100000107DA4501D100F02FF8AFF2090EBAE885
:100110000F0013F0010F18BFFB1A43F0010318473B
:100120003422000054220000103A24BF78C878C15D
:10013000FAD8520724BF30C830C144BF04680C60ED
:10014000704700000023002400250026103A28BF35
:1001500078C1FBD8520728BF30C148BF0B60704739
:100160001FB51FBD10B510BD00F0CCF81146FFF74C
:10017000F7FF02F083F800F0EAF803B4FFF7F2FFAC
:1001800003BC00F0F1F80000094880470948004727
:10019000FEE7FEE7FEE7FEE7FEE7FEE7FEE7FEE737
:1001A000FEE7FEE704480549054A064B7047000094
:1001B000211B0008ED0000085813002058190020EA
:1001C000581500205815002040EA0103024630B5BA
:1001D0009B0710D14FF0013400E008C208C91D1B75
:1001E0009D4315EAC41FF8D013F0FF0102F8011B6C
:1001F0000DD01B0AF8E711F8013B002B02F8013B78
:1002000005D011F8013B002B02F8013BF3D130BDC2
:10021000032A40F2308010F0030C00F0158011F832
:10022000013BBCF1020F624498BF11F801CB00F80A
:10023000013B38BF11F8013BA2F1040298BF00F85E
:1002400001CB38BF00F8013B11F0030300F0288018
:10025000083AC0F0088051F8043B083A51F804CB42
:10026000A0E80810F5E7121D5CBF51F8043B40F808
:10027000043BAFF30080D20724BF11F8013B11F813
:1002800001CB48BF11F8012B24BF00F8013B00F857
:1002900001CB48BF00F8012B70477047704770478B
:1002A00010B5203AC0F00B80B1E81850203AA0E811
:1002B0001850B1E81850A0E81850BFF4F5AF5FEA45
:1002C000027C24BFB1E81850A0E8185044BF18C9F8
:1002D00018C0BDE810405FEA827C24BF51F8043B9F
:1002E00040F8043B08BF7047D20728BF31F8023BF3
:1002F00048BF11F8012B28BF20F8023B48BF00F887
:10030000012B7047754600F02BF8AE460500694694
:10031000534620F00700854618B020B5FFF742FF8E
:10032000BDE820404FF000064FF000074FF00008F6
:100330004FF0000B21F00701AC46ACE8C009ACE877
:10034000C009ACE8C009ACE8C0098D46704710B5DB
:100350000446AFF300802046BDE81040FFF70DBF14
:1003600000487047F812002001491820ABBEFEE794
:1003700026000200704721B1826842F001028260CB
:1003800003E0826822F001028260704721B1826836
:1003900042F48072826003E0826822F4807282609C
:1003A0007047014600208A6802F004020AB1012069
:1003B00000E000207047014600208A6802F0080231
:1003C0000AB1012000E000207047000030B502466D
:1003D0000020002350680F4C20400D790C6844EA3F
:1003E00005242043506090680B4C2040D1E9025412
:1003F0002C434D7944EA450420439060D06A20F4B0
:1004000070000C7C641EE4B2234340EA0350D062C7
:1004100030BD0000FFFEF0FFFDF7F1FFF0B5044630
:100420000D4600200021092D11DDE068A5F10A0626
:1004300006EB4607072606FA07F18843A5F10A06E8
:1004400006EB460603FA06F10843E0600CE020697B
:1004500005EB4507072606FA07F1884305EB450635
:1004600003FA06F108432061072A0FDA606B561E73
:1004700006EB86071F2606FA07F18843561E06EB91
:10048000860605FA06F10843606322E00D2A0FDABA
:10049000206BD61F06EB86071F2606FA07F1884356
:1004A000D61F06EB860605FA06F10843206310E026
:1004B000E06AA2F10D0606EB86071F2606FA07F191
:1004C0008843A2F10D0606EB860605FA06F10843FD
:1004D000E062F0BD816841F008018160704721B1A0
:1004E000826842F4A002826003E0826822F4A002E3
:1004F00082607047816841F00401816070470000AC
:1005000008B50121042000F0AFFC0120ADF8000087
:1005100000208DF803006946014800F0A3FB08BDE8
:100520000008014010B5FFF7EBFF00F001F810BD27
:1005300000B591B00121084600F086FC0121480277
:1005400000F092FC334800F079F8334806903348C5
:100550000790002008900120099000200A900B903D
:100560004FF480700C9080000D9020200E900002BF
:100570000F900020109006A9264800F005F90121EF
:10058000244800F04FF8002001908DF80800012069
:100590008DF809004FF460200390002004900120A2
:1005A0008DF8140001A91C484C38FFF70FFF4FF4D9
:1005B000404000F03DFC06230122002116484C3843
:1005C000FFF72CFF012114484C38FFF7DFFE012113
:1005D00011484C38FFF7CFFE0F484C38FFF77AFF31
:1005E00000BF0D484C38FFF7E6FE0028F9D10A4855
:1005F0004C38FFF77FFF00BF07484C38FFF7D1FEAC
:100600000028F9D1012104484C38FFF768FF11B0E8
:1006100000BD0000080002404C24014004000020FE
:1006200000BFFEE721B1026842F00102026004E06F
:1006300002684FF6FE731A400260704701684FF679
:10064000FE72114001600021016041608160C16063
:100650004B49884208D14A490839496841F00F019D
:10066000474A083A51608AE045491431884208D126
:1006700043490839496841F0F001414A083A51605C
:100680007DE03F492831884208D13D490839496811
:1006900041F470613A4A083A516070E038493C319F
:1006A000884208D136490839496841F47041344AD2
:1006B000083A516063E032495031884208D13049EC
:1006C0000839496841F470212D4A083A516056E0D2
:1006D0002B496431884208D129490839496841F4D5
:1006E0007001274A083A516049E02549783188422B
:1006F00008D123490839496841F07061204A083A15
:1007000051603CE01F49884206D1011F096841F051
:100710000F01021F116032E01A491431884208D1DA
:100720001849091F096841F0F001164A121F1160AB
:1007300025E014492831884208D11249091F096867
:1007400041F470610F4A121F116018E00D493C31ED
:10075000884208D10B49091F096841F47041094AD0
:10076000121F11600BE007495031884207D105493B
:10077000091F096841F47021024A121F1160704775
:10078000080002400804024010B50022026847F643
:10079000F0739A430C6A8B6823430C6923434C69BA
:1007A00023438C692343CC6923434C6A23438C6ADB
:1007B00023431A430260CB6843600B6883604B6835
:1007C000C36010BD704700002DE9F04F8FB00220CC
:1007D00000F02CF900287AD0022000F021F97848A6
:1007E0000088784908800846007800F0010201215D
:1007F000754800F0CFFA73480078C0F34002022138
:10080000714800F0C7FA6F480078C0F380020421F5
:100810006D4800F0BFFA6B480078C0F3C0020821B1
:10082000694800F0B7FA67480078C0F30012102159
:10083000654800F0AFFA63480078C0F34012202109
:10084000614800F0A7FA5F480078C0F380124021A9
:100850005D4800F09FFA5B480078C20980215A4841
:1008600000F098FA5748407800F001024FF4807188
:10087000554800F08FFA53484078C0F340024FF4D7
:100880000071514800F086FA4E484078C0F380026B
:100890004FF480614C4800F07DFA4A484078C0F33C
:1008A000C0024FF40061484800F074FA45480388DC
:1008B000028846A1002000F0C7FC0A2001F0B8FC25
:1008C0000421494800F059FA0446224600E074E049
:1008D00046A1002000F0B8FC0421434800F058FA7B
:1008E0000421414800F049FA044622463FA1002075
:1008F00000F0AAFC0A2001F09BFC04213A4800F019
:1009000045FA0421384800F038FA0446224637A157
:10091000002000F099FC01212B4800F02EFA04463B
:100920000221294800F029FA05460421264800F052
:1009300024FA06460821244800F01FFA0746102131
:10094000214800F01AFA804620211F4800F015FACD
:10095000814640211C4800F010FA824680211A4846
:1009600000F00BFA83464FF48071174800F005FA47
:100970004FF400710E90144800F0FFF94FF48061BD
:100980000D90114800F0F9F94FF400610C900E48F9
:1009900000F0F3F9CDE902BACDE90498CDE9067685
:1009A000CDE908540B90DDE90D01CDE9000112A15C
:1009B0000020DDE90B2300F047FC0FB0BDE8F08F0D
:1009C0000400002002000020000C014072616461FC
:1009D000725F69665F7261773A20307825782825E2
:1009E00064290D0A00000000000801405041323A1D
:1009F0002025640D0A00000025642025642025645C
:100A00002025642025642025642025642025642079
:100A10002564202564202564202564200D0A00001B
:100A2000014908607047000014040140014600209D
:100A30000022074B1B6803EA0102054B14331B68B5
:100A40000B4013B10AB1012000E000207047000004
:100A500000040140002123498279002A3AD00A4645
:100A6000126803689A430B461A600A1D12680368ED
:100A70009A430B1D1A60027911440A6803681A43ED
:100A80000A60184A0832126803689A43154B083303
:100A90001A601A1D126803689A43124B0C331A60CD
:100AA0004279102A0ED11A1F126803681A430D4B9F
:100AB00008331A601A1D126803681A43094B0C3375
:100AC0001A600DE00749427911440A6803681A4325
:100AD0000A6005E0027911440A6803689A430A60D3
:100AE00070470000000401401FB50121082000F0FC
:100AF000BBF90121042000F0B7F90121084600F0FC
:100B0000B3F940F6FF70ADF80C0010208DF80F001F
:100B100003208DF80E0003A9404800F0A3F80C2034
:100B2000ADF80C0010208DF80F0003208DF80E009A
:100B300003A93B4800F096F80220ADF80C004820CD
:100B40008DF80F0003208DF80E0003A9344800F043
:100B500089F80121314800F01BF902212F4800F0EB
:100B600017F904212D4800F013F908212B4800F053
:100B70000FF91021294800F00BF92021274800F037
:100B800007F94021254800F003F98021234800F0AF
:100B9000FFF84FF48071214800F0FAF84FF400712B
:100BA0001E4800F0F5F84FF480611C4800F0F0F8A2
:100BB0004FF40061194800F0EBF80421184800F0E8
:100BC000E5F80821164800F0E3F80121002000F0C4
:100BD00029F80220FFF724FF0220009000208DF862
:100BE000040008208DF8050001208DF806006846F5
:100BF000FFF730FF4FF4A06000F00EF907208DF8EA
:100C0000080002208DF8090000208DF80A0001205C
:100C10008DF80B0002A800F0C7F81FBD000C0140C2
:100C20000008014030B500228B071C0F0F2303FA88
:100C300004F20B4B8C1053F824309343084C8D1066
:100C400044F8253023468C1053F824308C07240FA9
:100C500000FA04F42343024C8D1044F8253030BDD3
:100C6000080001402DE9F041024600250026002041
:100C700000230024002791F803C00CF00F0591F821
:100C800003C00CF0100CBCF1000F03D091F802C0AF
:100C90004CEA050591F800C0BCF1000F31D0146892
:100CA00000202BE04FF0010C0CFA00F3B1F800C06B
:100CB0000CEA03069E4220D183004FF00F0C0CFA81
:100CC00003F7BC4305FA03FC4CEA040491F803C0A3
:100CD000BCF1280F06D14FF0010C0CFA00FCC2F851
:100CE00014C00AE091F803C0BCF1480F05D14FF0E1
:100CF000010C0CFA00FCC2F810C0401C0828D1D32B
:100D00001460B1F800C0BCF1FF0F34DD546800205E
:100D10002EE000F1080C4FF0010808FA0CF3B1F8CE
:100D200000C00CEA03069E4221D183004FF00F0C55
:100D30000CFA03F7BC4305FA03FC4CEA040491F8EF
:100D400003C0BCF1280F05D100F1080C08FA0CF81B
:100D5000C2F8148091F803C0BCF1480F07D100F12C
:100D6000080C4FF0010808FA0CF8C2F81080401C7B
:100D70000828CED35460BDE8F08102460020D36835
:100D80000B400BB1012000E000207047416170472B
:100D9000016170470AB1016100E04161704700BF25
:100DA000FEE700BFFEE7704770B5002100230F2269
:100DB000C47804B3154C246804F4E064C4F5E0641A
:100DC000210AC1F10403CA40447804FA03F184788B
:100DD0001440214309010E4C0678A155047804F013
:100DE0001F050124AC4005786D11AD0005F1E0252B
:100DF000C5F8004109E0047804F01F050124AC4067
:100E0000044D0678761145F8264070BD0CED00E0E3
:100E100000E400E080E100E002490143024A116081
:100E2000704700000000FA050CED00E0704700007C
:100E300001460020034A506820F4404008435060B7
:100E4000704700000010024029B1064A526902436F
:100E5000044B5A6104E0034A52698243014B5A61D0
:100E6000704700000010024029B1064A926902430F
:100E7000044B9A6104E0034A92698243014B9A61F0
:100E800070470000001002402DE9F04706460F466B
:100E900090469946DFF8B0A000BF9AF8000008B964
:100EA00000F070FE00BFEFF311810846202181F3AE
:100EB000118800BF00BF244D002400BF04EB440292
:100EC00005F1180101EBC201496801B903E0641C96
:100ED0002969A142F2DC00BF2969A1422ADD04EBA5
:100EE000440205F1180141F8326004EB440201EBC1
:100EF000C2014F6004EB440205F1180101EBC2018D
:100F0000C1F80880002204EB440305F1180101EB4D
:100F1000C3010A6104EB440305F1180101EBC301AD
:100F2000CA6004EB440205F1180101EBC201C1F8EB
:100F3000149001E04FF0FF34C1B281F3118800BF7B
:100F400000BF2046BDE8F087380400202DE9F05F9F
:100F500005460F4690469946DFF860B000BF9BF803
:100F6000000008B900F00EFE00BFDFF850A0032D0E
:100F70001FD2EFF311810846202181F3118800BFB1
:100F800000BF05EB45020AF1600101EBC2043DB16F
:100F90002760C4F80480C4F8089000212161E16052
:100FA0000A996161C1B281F3118800BF00BF0026B8
:100FB00001E04FF0FF363046BDE8F09F38040020D6
:100FC0002DE9F05F05460F4690469946DFF860B080
:100FD00000BF9BF8000008B900F0D4FD00BFDFF8A7
:100FE00050A0032D1FD2EFF311810846202181F379
:100FF000118800BF00BF05EB45020AF1180101EBA3
:10100000C2043DB12760C4F80480C4F808900021F0
:101010002161E1600A996161C1B281F3118800BF69
:1010200000BF002601E04FF0FF363046BDE8F09FDC
:101030003804002010B500F0A5FD10BD2DE9F74FD4
:1010400082B0834617462648009000BF009800787B
:1010500008B900F097FD00BF0BEB4B012048603052
:1010600000EBC106DDF80C903569D6F80CA04FF006
:101070000008554517D9B068441BBC4201D2204630
:1010800000E03846044670682844019022464846ED
:101090000199FFF7BDF8A044A1443F1B2544B06867
:1010A000A84200D10025AAEB0504BC4201D220468B
:1010B00000E0384604465CB170682844019022463E
:1010C00048460199FFF7A4F8A044A1443F1B2544DA
:1010D000B8F1000F00D03561404605B0BDE8F08F93
:1010E000380400202DE9F04104460D4616460E4F07
:1010F00000BF387808B900F045FD00BFEFF311805C
:101100000746202080F3118800BF00BF32462946E1
:10111000204600F00BF88046F8B280F3118800BF3B
:1011200000BF4046BDE8F081380400202DE9F047BB
:10113000074688461646C24607EB47011B4800EBA8
:10114000C109D9F8140020B1012811D0022826D1F4
:101150001EE0484600F071FD0546B54201D200246C
:1011600005E0344632465146484600F0F4FF18E0A8
:10117000484600F062FD0546B54201D2284600E02F
:101180003046044622465146484600F0E4FF08E057
:1011900032465146484600F0A3FF044601E00024D1
:1011A00000BF00BF2046BDE8F087000050040020CB
:1011B0002DE9F74F82B083461546039801900BEB5B
:1011C0004B01204800EBC104D4F81090E668B1450B
:1011D00030D8A068801B471EAF420ED300BF6068A6
:1011E00000EB060A2A4650460199FFF711F87019DC
:1011F000E060012005B0BDE8F08F4F44AF421FD33F
:10120000A068A0EB0608606800EB060A424650465C
:101210000199FEF7FDFFA5EB080545B1D4F804A040
:10122000019800EB08012A465046FEF7F1FFE56001
:101230000120DFE7A9EB0600471EAF4200D3CEE74F
:101240000020D7E7500400200FB438B5044606A8A4
:1012500000906A462046059900F007F805460020F0
:101260000090284638BC5DF814FB2DE9F04F99B08A
:1012700082460D46144603A8149040201590002085
:101280001690CDF860A0179000BF2E786D1C06B99F
:10129000DDE0252E79D100274FF0010900BF2E781F
:1012A000232E12D02B2E0CD02D2E02D0302E10D16A
:1012B00003E047F001076D1C0EE047F002076D1CCC
:1012C0000AE047F004076D1C06E047F008076D1CB4
:1012D00002E04FF0000900BF00BFB9F1000FDED1FE
:1012E0004FF0000800BF2E78302E01DB392E00DDD4
:1012F00007E06D1CA6F1300008EB880100EB410807
:10130000F1E700BF002013902E782E2E12D16D1C15
:1013100000BF2E78302E01DB392E00DD09E06D1C78
:10132000A6F13000139901EB810100EB410013900D
:10133000EFE700BF2E7800BF6C2E01D0682E02D1DF
:101340006D1C2E7800E000E0F6E700BF702E5DD047
:1013500008DC252E6AD0582E35D0632E09D0642E95
:1013600069D113E0732E3CD0752E1DD0782E62D13A
:1013700028E02168081D2060D1F8009009F0FF0BDB
:10138000594614A800F046FE56E058E02168081DB2
:101390002060D1F80090CDE900870A22494614A8C0
:1013A000139B00F0B0FC47E02168081D2060D1F8D5
:1013B0000090CDE900870A22494614A8139B00F04B
:1013C00019FD39E000BF2168081D2060D1F80090A8
:1013D000CDE900871022494614A8139B00F00AFDAE
:1013E0002AE02168081D2060D1F800B000BF9BF8FA
:1013F00000600BF1010B06B906E0314614A800F0BD
:1014000009FE17980028F2DA00BF15E02168081DD0
:101410002060D1F80090002008210B461022CDE971
:101420000010494614A800F0E5FC05E0252114A8A9
:1014300000F0F0FD00E000BF00BF6D1C03E031468E
:1014400014A800F0E7FD17980028BFF61EAF00BFF4
:10145000179800280ADD169820B103A95046169A5D
:10146000FFF740FEDDE9161008441790179819B0F1
:10147000BDE8F08F10B50E48006800F0007050B95C
:101480000B48006800F0010028B90948006840F0E6
:10149000010007490860074B0022074801680068FF
:1014A00000F06AF84FF0805000F008FA10BD00001C
:1014B000001000E0B12100082400002070B5EFF317
:1014C00011800646202080F3118800BF00BF284805
:1014D00000F016FC05462C462046264A516805E0D9
:1014E000CAB242F0800200F8012BC9097F29F7D85F
:1014F00000F8011B044620461E4A916805E0CAB266
:1015000042F0800200F8012BC9097F29F7D800F8C2
:10151000011B04462046174A116905E0CAB242F091
:10152000800200F8012BC9097F29F7D800F8011BB8
:1015300004462046002105E0CAB242F0800200F8CD
:10154000012BC9097F29F7D800F8011B044618228E
:101550002146284600F0C4FCF0B280F3118800BF99
:1015600000BF0448406A10B10249486A804770BD14
:1015700014120020EC110020F8B504460D46164662
:101580001F46002340F6FC020F4910A0FFF77CFC29
:101590001049487008464078087600200090087E80
:1015A00008230D4A09A1FFF7D1FC00200949086171
:1015B0000A484068C8600846066244608560476221
:1015C00000200870F8BD0000F00800205379735621
:1015D00069657700EC11002010000020001000E089
:1015E00070B50C48006A78B10A48006A006858B1C2
:1015F0000849096A0868804704460D462A4621467C
:101600000D2000F039F804E0034841680C2000F098
:1016100005F870BDEC110020001000E02DE9F0414C
:1016200005460E46EFF311808046202080F3118896
:1016300000BF00BF0F4800F063FB04462746384652
:10164000314605E0CAB242F0800200F8012BC90918
:101650007F29F7D800F8011B07462A46394620465D
:1016600000F03EFC08F0FF0080F3118800BF00BFCF
:10167000BDE8F081141200202DE9F04706460F4620
:101680009046EFF311808146202080F3118800BF3F
:1016900000BF174800F034FB05462C46204639466B
:1016A00005E0CAB242F0800200F8012BC9097F2987
:1016B000F7D800F8011B04462046414605E0CAB2AF
:1016C00042F0800200F8012BC9097F29F7D800F801
:1016D000011B044632462146284600F001FC09F071
:1016E000FF0080F3118800BF00BFBDE8F087000055
:1016F0001412002070B50446EFF311800546202037
:1017000080F3118800BF00BF074800F0F9FA0646D1
:1017100022463146304600F0E3FBE8B280F3118800
:1017200000BF00BF70BD0000141200202DE9F0477B
:10173000064627480068002847D025480468002747
:1017400003E0246904B902E07F1CB742F9D300BF6B
:10175000002C3AD0EFF311808146202080F31188CD
:1017600000BF00BF1B4800F0CBFA80464546284624
:10177000314605E0CAB242F0800200F8012BC909E7
:101780007F29F7D800F8011B05462846A16805E027
:10179000CAB242F0800200F8012BC9097F29F7D8AC
:1017A00000F8011B054680222846216800F022FA35
:1017B000054616222946404600F092FB09F0FF003C
:1017C00080F3118800BF00BF00BFBDE8F0870000B4
:1017D000180000201412002010B50748006848B116
:1017E0000548046800BFE06808B1E06880472469E4
:1017F000002CF8D110BD00001800002070B5EFF3E8
:1018000011800646202080F3118800BF00BF0F48DA
:1018100000F076FA0446254628460D4A117805E080
:10182000CAB242F0800200F8012BC9097F29F7D81B
:1018300000F8011B05461B222946204600F050FBFC
:10184000F0B280F3118800BF00BF70BD14120020F9
:101850001C0000202DE9F0410446EFF311800546FD
:10186000202080F3118800BF00BF0B4800F048FA29
:10187000074680222146384600F0BCF906460E2273
:101880003146384600F02CFBE8B280F3118800BFE7
:1018900000BFBDE8F08100001412002010B506481A
:1018A000006A38B10448006A406818B10249096A00
:1018B0004868804710BD0000EC1100200149086114
:1018C00070470000EC11002070B501203A49087003
:1018D000EFF311800446202080F3118800BF00BF81
:1018E00048780A223549FFF763FCE0B280F311889B
:1018F00000BF00BF0A20FFF7FDFEEFF31180064690
:10190000202080F3118800BF00BF2D4800F0F8F9B7
:1019100005462C462046284A516805E0CAB242F0E6
:10192000800200F8012BC9097F29F7D800F8011BB4
:1019300004462046204A916805E0CAB242F080027F
:1019400000F8012BC9097F29F7D800F8011B0446CC
:101950002046194A116905E0CAB242F0800200F837
:10196000012BC9097F29F7D800F8011B044620463E
:10197000002105E0CAB242F0800200F8012BC9093B
:101980007F29F7D800F8011B044618222146284673
:1019900000F0A6FAF0B280F3118800BF00BF06483D
:1019A000406A10B10449486A8047FFF719FEFFF703
:1019B00075FFFFF723FF70BDEC11002038230008EE
:1019C0001412002070B5EFF311800546202080F33B
:1019D000118800BF00BF0A4800F092F90446094888
:1019E000007838B10B222146204600F079FA002019
:1019F00004490870E8B280F3118800BF00BF70BDD1
:101A000014120020EC110020704710B500F002F80D
:101A100010BD00000CB50020019000903348006814
:101A200040F480303149086000BF3048006800F45D
:101A3000003000900198401C0190009818B901985E
:101A4000B0F5A06FF1D12948006800F4003010B162
:101A50000120009001E0002000900098012843D16F
:101A60002348006840F010002149086008460068DB
:101A700020F0030008600846006840F0020008609B
:101A80001A48406819494860084640684860084656
:101A9000406840F4806048600846406820F47C104C
:101AA00048600846406840F4E8104860084600680E
:101AB00040F08070086000BF0C48006800F00070C3
:101AC0000028F9D00948406820F003000749486021
:101AD0000846406840F00200486000BF0348406884
:101AE00000F00C000828F9D10CBD000000100240E5
:101AF00000200240042808D14FF0E021096941F09C
:101B000004014FF0E022116107E04FF0E021096984
:101B100021F004014FF0E02211617047704700008E
:101B200010B51348006840F00100114908600846EC
:101B30004068104908400E494860084600680E4950
:101B400008400B4908600846006820F480200860BF
:101B50000846406820F4FE0048604FF41F0088608B
:101B6000FFF753FF4FF000600449086010BD00000C
:101B7000001002400000FFF8FFFFF6FE08ED00E055
:101B800000BFFEE710B5124C03202061606111A078
:101B9000A0611349E1614FF4806121620021A162DB
:101BA0006162E1620BA020660E4961661021A166A8
:101BB00000212167E16661670BA1E01DFEF704FBD0
:101BC0000AA12046FEF700FB2020A07110BD0000F6
:101BD000380400205465726D696E616C000000006D
:101BE000E0040020E00800205254540053454747C9
:101BF0004552000030B50B4600213BB100E0491CC6
:101C00005D5C002DFBD1914200D91146FF2902D223
:101C100000F8011B07E0FF2500F8015B00F8011B3D
:101C20000D0A00F8015B002404E013F8015B00F8E2
:101C3000015B641C8C42F8D330BD10B501460A69C3
:101C4000CB689A4204D88C68641EE41AA01801E09C
:101C5000D41A601E10BD000038B52849087E012244
:101C60006946FFF7EBF90446002C46DD9DF80000BD
:101C700005281ED008DC01280FD0022810D0032828
:101C800011D004282DD111E0062815D0072816D030
:101C90007F2825D0802824D114E0FFF715FE2BE003
:101CA000FFF790FE28E0FFF79BFC25E0FFF7F6FD2D
:101CB00022E0FFF703FC1FE0FFF7A0FD1CE0FFF7A9
:101CC0008BFD19E00D49087E01226946FFF7B6F940
:101CD0000446002C03DD9DF80000FFF727FD0BE014
:101CE0000AE09DF80000802805DB0449087E0122F7
:101CF0006946FFF7A3F900BF00BF38BDEC11002013
:101D00000146081D70472DE9FC5F06460F469246C6
:101D10009846DDE90C45002F01DA784200E03846AC
:101D200083464FF0010903E09BFBFAFB09F101092F
:101D3000D345F9DAC84500D9C14634B1002F03DBD9
:101D400005F00400042800D1641E05F0020010B163
:101D5000B8F1000F11D005F0010070B96CB108E0C6
:101D6000641E2021304600F055F9F068002800DAA2
:101D700002E00CB1A145F3D300BFF068002836DBC8
:101D8000002F05DA7F422D21304600F043F907E0AD
:101D900005F00400042803D12B21304600F03AF965
:101DA000F068002823DB05F00200022814D105F0BA
:101DB000010088B9B8F1000F0ED16CB108E0641EC3
:101DC0003021304600F026F9F068002800DA02E001
:101DD0000CB1A145F3D300BFF068002807DB4346F0
:101DE000524639463046CDE9004500F003F8BDE8DB
:101DF000FC9F00002DE9FC5F8046894615461E4683
:101E00000C9CCDF804900127BB4605E00198B0FB7F
:101E1000F5F001900BF1010B0198A842F6D25E4556
:101E200000D9B3460D9800F00100D0B9CCB10D989F
:101E300000F00200022803D116B93020009001E022
:101E40002020009009E0641E4046009900F0E2F86E
:101E5000D8F80C00002800DA02E00CB1A345F2D358
:101E600000BFD8F80C00002835DB09E0012E01D9AD
:101E7000761E04E0B9FBF7FAAA4500D201E06F43F1
:101E8000F4E700BF00BFB9FBF7FA0AFB1799134844
:101E900010F80A10404600F0BDF8D8F80C000028F1
:101EA00000DA03E0B7FBF5F7002FECD100BF0D9887
:101EB00000F0010078B174B109E0641E20214046B1
:101EC00000F0A8F8D8F80C00002800DA02E00CB105
:101ED000A345F2D300BFBDE8FC9F00002823000803
:101EE0002DE9F04704460F4615464748007801287B
:101EF00000D10FE04448007800B966E0424800781D
:101F0000022806D100F0A8F83F480078012800D048
:101F10005BE000BF202D06D23B48C0690121A940EB
:101F2000084000B151E0182D03D2601E0446057030
:101F300022E03E1B7F2E0BD9C6F3C711601E04465C
:101F40000170F0B240F08001601E0446017002E0B2
:101F5000601E044606707F2D0BD9C5F3C711601EA5
:101F600004460170E8B240F08001601E0446017032
:101F700002E0601E044605702448D0F80480224820
:101F8000C068A8EB000A3846514605E0CAB242F0E4
:101F9000800200F8012BC9097F29F7D800F8011B3E
:101FA00007463A1B184948782146FFF701F9814650
:101FB000B9F1000F03D01448C0F80C8004E01248B7
:101FC0000078401C1049087000BF0F48007E00EBED
:101FD00040010F4800EBC100C1680B48007E00EBD8
:101FE00040020B4800EBC2000069081A0AD00648FC
:101FF000807838B9012004498870FFF72DFE002051
:1020000001498870BDE8F087EC110020001000E065
:102010009804002070B504460E46A568681C6168E7
:10202000814206D320684655681CA060E068401CC9
:10203000E060D4E9011088420DD1A26821682069CE
:10204000FFF750F8A168884203D04FF0FF30E060FE
:1020500001E00020A06070BDFEB501208DF80000F9
:102060000DF1010630461C4A516905E0CAB242F042
:10207000800200F8012BC9097F29F7D800F8011B5D
:102080000646164844681448C068271A3046394640
:1020900005E0CAB242F0800200F8012BC9097F298D
:1020A000F7D800F8011B06466946721A0A494878B3
:1020B0006946FFF77DF8054635B10748C4600078EA
:1020C000401E0549087004E003484069401C02496D
:1020D00048612846FEBD0000EC110020001000E021
:1020E0002DE9F05F0446894617464FF0000AE5687F
:1020F00000BFD4F81080A84503D9A8EB0500461E00
:1021000004E0A5EB0800401CA1680E1AA068401B63
:10211000B04201D9304601E0A068401B0646BE42ED
:1021200001D2304600E038460646606800EB050BF9
:10213000324649465846FEF76BF8B244B144BF1BDD
:102140003544A068A84200D10025E560002FD0D119
:102150005046BDE8F09F2DE9F047044689461546F4
:10216000E668A068871BAF420AD9606800EB060AE0
:102170002A4649465046FEF74BF87019E06014E0D5
:10218000B846606800EB060A424649465046FEF7EC
:102190003FF8A5EB0708D4F804A009EB0701424675
:1021A0005046FEF735F8C4F80C80BDE8F087000013
:1021B00010B503A0FFF74EFB08A0FFF74BFB10BDC7
:1021C0004E3D584252383136432044656D6F2C44A1
:1021D0003D48433332463436300000004923313520
:1021E0003D5379735469636B0000000010B56FF0C4
:1021F0000400FFF77FFC0A4800680A49B0FBF1F0D1
:10220000094908700846007800EB4001C1EBC01096
:102210004FF6FF7101EAC0000449088010BD0000BC
:102220002400002000127A001E0000202000002060
:102230000146114A12784A434FF0E0235A610022C6
:102240009A611A46126942F001021A6100BF4FF00A
:10225000E022106900F001021AB100F48032002A75
:10226000F5D04FF0E022126922F001024FF0E02396
:102270001A6100229A6170471E0000200024FEF7B8
:1022800033FCFEF74FF900F015F8FFF7AFFF0CE055
:10229000641C064800880649088002220120FEF7D7
:1022A00021FFC820FFF7C4FF00BFF1E704000020B2
:1022B0000000002008B500204FF48063084A09A1FF
:1022C00000900120FEF77CFEFEF7B4FE08A30AA2F0
:1022D0000BA10020FEF7B8FFFFF7CCF808BD000007
:1022E000380000204A53636F70655F55320000006C
:1022F0001B5B306D000000001B5B343B34316D0014
:10230000257370686F73656E7365207261646172A6
:1023100020636869703A2058425238323020444570
:102320004D4F25730D0A00003031323334353637C6
:102330003839414243444546000000000000000097
:102340000000303132333435363738394142434476
:1023500045460000742300080000002038000000FB
:1023600028010008AC2300083800002020190000D4
:102370004401000800000000000000000000000010
:10238000000000000000000000000000000000004D
:10239000000000000000000000A24A04000000004D
:0C23A00000000000010203040607080909
:04000005080000ED02
:00000001FF
