:020000040800F2
:100000006806002089010008ED0A0008E50A0008DA
:10001000E90A0008ED040008210D000800000000B6
:10002000000000000000000000000000D10B0008EC
:100030009106000800000000750B0008BD0C0008C8
:10004000A3010008A3010008A3010008A301000800
:10005000A3010008A3010008A3010008A3010008F0
:10006000A3010008A3010008A3010008A3010008E0
:10007000A3010008A3010008A3010008A3010008D0
:10008000A3010008A3010008A3010008A3010008C0
:10009000A3010008A3010008A3010008A3010008B0
:1000A000A3010008A3010008A3010008A3010008A0
:1000B000A3010008A3010008A3010008A301000890
:1000C000A3010008A3010008A3010008A301000880
:1000D000A3010008A3010008A3010008A301000870
:1000E00095060008A3010008A301000800F002F82B
:1000F00000F03AF80AA090E8000C82448344AAF188
:100100000107DA4501D100F02FF8AFF2090EBAE885
:100110000F0013F0010F18BFFB1A43F0010318473B
:10012000100C0000300C0000103A24BF78C878C1D1
:10013000FAD8520724BF30C830C144BF04680C60ED
:10014000704700000023002400250026103A28BF35
:1001500078C1FBD8520728BF30C148BF0B60704739
:100160001FB51FBD10B510BD00F031F81146FFF7E7
:10017000F7FF00F0D7FD00F04FF803B4FFF7F2FFF0
:1001800003BC00F057F800000948804709480047C1
:10019000FEE7FEE7FEE7FEE7FEE7FEE7FEE7FEE737
:1001A000FEE7FEE704480549054A064B7047000094
:1001B000C10C0008ED00000868000020680600205F
:1001C000680200206802002070477047704775463B
:1001D00000F02CF8AE4605006946534620F00700B3
:1001E000854618B020B5FFF7DDFFBDE820404FF091
:1001F00000064FF000074FF000084FF0000B21F011
:100200000701AC46ACE8C009ACE8C009ACE8C009DD
:10021000ACE8C0098D46704710B50446AFF30080C6
:100220002046BDE81040FFF7A8BF00000048704717
:100230000400002001491820ABBEFEE726000200A2
:10024000704721B1826842F00102826003E0826857
:1002500022F001028260704721B1826842F480720C
:10026000826003E0826822F48072826070470146F7
:1002700000208A6802F004020AB1012000E0002098
:100280007047014600208A6802F008020AB1012086
:1002900000E000207047000030B502460020002337
:1002A00050680F4C20400D790C6844EA0524204327
:1002B000506090680B4C2040D1E902542C434D799A
:1002C00044EA450420439060D06A20F470000C7C1E
:1002D000641EE4B2234340EA0350D06230BD000004
:1002E000FFFEF0FFFDF7F1FFF0B504460D460020DC
:1002F0000021092D11DDE068A5F10A0606EB46078D
:10030000072606FA07F18843A5F10A0606EB46061A
:1003100003FA06F10843E0600CE0206905EB4507AD
:10032000072606FA07F1884305EB450603FA06F1AE
:1003300008432061072A0FDA606B561E06EB86071A
:100340001F2606FA07F18843561E06EB860605FAB5
:1003500006F10843606322E00D2A0FDA206BD61FF6
:1003600006EB86071F2606FA07F18843D61F06EB21
:10037000860605FA06F10843206310E0E06AA2F160
:100380000D0606EB86071F2606FA07F18843A2F141
:100390000D0606EB860605FA06F10843E062F0BD9D
:1003A000816841F008018160704721B1826842F4A0
:1003B000A002826003E0826822F4A002826070479B
:1003C000816841F0040181607047000008B5012197
:1003D000042000F0EDFB0120ADF8000000208DF8B6
:1003E00003006946014800F0EBFA08BD000801402F
:1003F00010B5FFF7EBFF00F001F810BD00B591B0AC
:100400000121084600F0C4FB0121480200F0D0FBA6
:10041000334800F079F833480690334807900020BD
:1004200008900120099000200A900B904FF48070F2
:100430000C9080000D9020200E9000020F90002064
:10044000109006A9264800F005F90121244800F083
:100450004FF8002001908DF8080001208DF8090068
:100460004FF4602003900020049001208DF81400C8
:1004700001A91C484C38FFF70FFF4FF4404000F033
:100480007BFB06230122002116484C38FFF72CFF86
:10049000012114484C38FFF7DFFE012111484C3888
:1004A000FFF7CFFE0F484C38FFF77AFF00BF0D482B
:1004B0004C38FFF7E6FE0028F9D10A484C38FFF720
:1004C0007FFF00BF07484C38FFF7D1FE0028F9D165
:1004D000012104484C38FFF768FF11B000BD00004F
:1004E000080002404C2401400200002000BFFEE74B
:1004F00021B1026842F00102026004E002684FF696
:10050000FE731A400260704701684FF6FE72114098
:1005100001600021016041608160C1604B498842F7
:1005200008D14A490839496841F00F01474A083A59
:1005300051608AE045491431884208D1434908395D
:10054000496841F0F001414A083A51607DE03F4975
:100550002831884208D13D490839496841F4706121
:100560003A4A083A516070E038493C31884208D133
:1005700036490839496841F47041344A083A5160B3
:1005800063E032495031884208D13049083949681E
:1005900041F470212D4A083A516056E02B496431EC
:1005A000884208D129490839496841F47001274A2D
:1005B000083A516049E025497831884208D12349F9
:1005C0000839496841F07061204A083A51603CE0BE
:1005D0001F49884206D1011F096841F00F01021F1F
:1005E000116032E01A491431884208D11849091FB4
:1005F000096841F0F001164A121F116025E0144904
:100600002831884208D11249091F096841F47061F4
:100610000F4A121F116018E00D493C31884208D181
:100620000B49091F096841F47041094A121F116002
:100630000BE007495031884207D10549091F096875
:1006400041F47021024A121F1160704708000240F5
:100650000804024010B50022026847F6F0739A437E
:100660000C6A8B6823430C6923434C6923438C69D0
:100670002343CC6923434C6A23438C6A23431A43A4
:100680000260CB6843600B6883604B68C36010BD39
:100690007047000010B5012000F07AF8002869D0FA
:1006A000012000F06FF8344800883449088008467B
:1006B000007800F001020121314800F00EFA2F48C5
:1006C0000078C0F3400202212D4800F006FA2B48C2
:1006D0000078C0F380020421294800F0FEF9274881
:1006E0000078C0F3C0020821254800F0F6F923483D
:1006F0000078C0F300121021214800F0EEF91F48E5
:100700000078C0F3401220211D4800F0E6F91B4894
:100710000078C0F380124021194800F0DEF9174834
:100720000078C2098021164800F0D7F913484078B4
:1007300000F001024FF48071114800F0CEF90F482B
:100740004078C0F340024FF400710D4800F0C5F945
:100750000A484078C0F380024FF48061084800F0F6
:10076000BCF906484078C0F3C0024FF40061044869
:1007700000F0B3F910BD00000200002000000020CE
:10078000000C01400149086070470000140401405A
:10079000014600200022074B1B6803EA0102054BBB
:1007A00014331B680B4013B10AB1012000E0002094
:1007B0007047000000040140002123498279002A8B
:1007C0003AD00A46126803689A430B461A600A1D1B
:1007D000126803689A430B1D1A60027911440A6873
:1007E00003681A430A60184A0832126803689A4379
:1007F000154B08331A601A1D126803689A43124B8E
:100800000C331A604279102A0ED11A1F126803683D
:100810001A430D4B08331A601A1D126803681A43F5
:10082000094B0C331A600DE00749427911440A68FC
:1008300003681A430A6005E0027911440A680368F4
:100840009A430A6070470000000401401FB501216F
:10085000082000F0ADF90121042000F0A9F940F6CC
:10086000FF70ADF80C0010208DF80F0003208DF8FC
:100870000E0003A9404800F0A3F80C20ADF80C00CE
:1008800010208DF80F0003208DF80E0003A93B48BF
:1008900000F096F80220ADF80C0028208DF80F002B
:1008A00002208DF80E0003A9344800F089F80121D8
:1008B000314800F010F902212F4800F00CF9042112
:1008C0002D4800F008F908212B4800F004F9102108
:1008D000294800F000F92021274800F0FCF84021C9
:1008E000254800F0F8F88021234800F0F4F84FF490
:1008F0008071214800F0EFF84FF400711E4800F0BD
:10090000EAF84FF480611C4800F0E5F84FF400610C
:10091000194800F0E0F80421184800F0DCF808213C
:10092000164800F0D8F80120FFF72CFF00210846F8
:1009300000F026F80120009000208DF80400082027
:100940008DF8050001208DF806006846FFF734FF9A
:100950004FF4C06000F004F928208DF80800002052
:100960008DF8090002208DF80A0001208DF80B0097
:1009700002A800F0BDF81FBD000C014000080140B6
:1009800030B500228B071C0F0F2303FA04F20B4B28
:100990008C1053F824309343084C8D1044F82530C4
:1009A00023468C1053F824308C07240F00FA04F4EB
:1009B0002343024C8D1044F8253030BD080001401F
:1009C0002DE9F041024600250026002000230024E6
:1009D000002791F803C00CF00F0591F803C00CF04C
:1009E000100CBCF1000F03D091F802C04CEA0505D1
:1009F00091F800C0BCF1000F31D0146800202BE04A
:100A00004FF0010C0CFA00F3B1F800C00CEA030639
:100A10009E4220D183004FF00F0C0CFA03F7BC4329
:100A200005FA03FC4CEA040491F803C0BCF1280F5A
:100A300006D14FF0010C0CFA00FCC2F814C00AE019
:100A400091F803C0BCF1480F05D14FF0010C0CFA2E
:100A500000FCC2F810C0401C0828D1D31460B1F8C3
:100A600000C0BCF1FF0F34DD546800202EE000F11F
:100A7000080C4FF0010808FA0CF3B1F800C00CEABA
:100A800003069E4221D183004FF00F0C0CFA03F7AE
:100A9000BC4305FA03FC4CEA040491F803C0BCF122
:100AA000280F05D100F1080C08FA0CF8C2F81480E0
:100AB00091F803C0BCF1480F07D100F1080C4FF0CA
:100AC000010808FA0CF8C2F81080401C0828CED3A0
:100AD0005460BDE8F081016170470AB1016100E036
:100AE0004161704700BFFEE700BFFEE770470000AE
:100AF00070B5002100230F22C47804B3154C24687C
:100B000004F4E064C4F5E064210AC1F10403CA40BE
:100B1000447804FA03F184781440214309010E4C0F
:100B20000678A155047804F01F050124AC4005782F
:100B30006D11AD0005F1E025C5F8004109E004782C
:100B400004F01F050124AC40044D0678761145F8E9
:100B5000264070BD0CED00E000E400E080E100E024
:100B600002490143024A1160704700000000FA0583
:100B70000CED00E07047000001460020034A506879
:100B800020F44040084350607047000000100240CD
:100B900029B1064A52690243044B5A6104E0034AF0
:100BA00052698243014B5A617047000000100240B5
:100BB00029B1064A92690243044B9A6104E0034A50
:100BC00092698243014B9A61704700000010024015
:100BD000704710B500F002F810BD00000CB5002001
:100BE000019000903348006840F48030314908603B
:100BF00000BF3048006800F4003000900198401CAD
:100C00000190009818B90198B0F5A06FF1D129486A
:100C1000006800F4003010B10120009001E00020D5
:100C200000900098012843D12348006840F010004C
:100C3000214908600846006820F003000860084663
:100C4000006840F0020008601A484068194948608E
:100C50000846406848600846406840F48060486044
:100C60000846406820F47C1048600846406840F41C
:100C7000E81048600846006840F08070086000BFD7
:100C80000C48006800F000700028F9D0094840685E
:100C900020F00300074948600846406840F0020021
:100CA000486000BF0348406800F00C000828F9D1F4
:100CB0000CBD000000100240002002407047000000
:100CC00010B51348006840F001001149086008465B
:100CD0004068104908400E494860084600680E49BF
:100CE00008400B4908600846006820F4802008602E
:100CF0000846406820F4FE0048604FF41F008860FA
:100D0000FFF767FF4FF000600449086010BD000066
:100D1000001002400000FFF8FFFFF6FE08ED00E0C3
:100D200000BFFEE7FFF792FDFFF762FB00BFFEE7A3
:100D3000500D0008000000200400000028010008F9
:100D4000540D00080400002064060000440100085F
:040D5000000000009F
:04000005080000ED02
:00000001FF
