:020000040800F2
:100000007006002089010008E9070008E1070008E0
:10001000E507000821050008690A00080000000043
:10002000000000000000000000000000450800087B
:10003000C506000800000000EB07000831090008B1
:10004000A3010008A3010008A3010008A301000800
:10005000A3010008A3010008A3010008A3010008F0
:10006000A3010008A3010008A3010008A3010008E0
:10007000A3010008A3010008A3010008A3010008D0
:10008000A3010008A3010008A3010008A3010008C0
:10009000A3010008A3010008A3010008A3010008B0
:1000A000A3010008A3010008A3010008A3010008A0
:1000B000A3010008A3010008A3010008A301000890
:1000C000A3010008A3010008A3010008A301000880
:1000D000A3010008A3010008A3010008A301000870
:1000E000A3010008A3010008A301000800F002F822
:1000F00000F03AF80AA090E8000C82448344AAF188
:100100000107DA4501D100F02FF8AFF2090EBAE885
:100110000F0013F0010F18BFFB1A43F0010318473B
:10012000480E0000680E0000103A24BF78C878C15D
:10013000FAD8520724BF30C830C144BF04680C60ED
:10014000704700000023002400250026103A28BF35
:1001500078C1FBD8520728BF30C148BF0B60704739
:100160001FB51FBD10B510BD00F031F81146FFF7E7
:10017000F7FF00F07BFC00F04FF803B4FFF7F2FF4D
:1001800003BC00F057F800000948804709480047C1
:10019000FEE7FEE7FEE7FEE7FEE7FEE7FEE7FEE737
:1001A000FEE7FEE704480549054A064B7047000094
:1001B00035090008ED0000087000002070060020DE
:1001C000700200207002002070477047704775462B
:1001D00000F02CF8AE4605006946534620F00700B3
:1001E000854618B020B5FFF7DDFFBDE820404FF091
:1001F00000064FF000074FF000084FF0000B21F011
:100200000701AC46ACE8C009ACE8C009ACE8C009DD
:10021000ACE8C0098D46704710B50446AFF30080C6
:100220002046BDE81040FFF7A8BF00000048704717
:100230000C00002001491820ABBEFEE7260002009A
:10024000704700002DE9F0410848008800F07AFD71
:1002500006460022064B00F01DFC04464FF06632B5
:10026000044B00F083FDBDE8F08100000800002091
:100270000000B04066660A4021B1826842F0010287
:10028000826003E0826822F001028260704721B13F
:10029000826842F48072826003E0826822F4807295
:1002A00082607047014600208A6802F004020AB1A9
:1002B000012000E000207047014600208A6802F01B
:1002C00008020AB1012000E00020704730B5024664
:1002D0000020002350680F4C20400D790C6844EA40
:1002E00005242043506090680B4C2040D1E9025413
:1002F0002C434D7944EA450420439060D06A20F4B1
:1003000070000C7C641EE4B2234340EA0350D062C8
:1003100030BD0000FFFEF0FFFDF7F1FFF0B5044631
:100320000D4600200021092D11DDE068A5F10A0627
:1003300006EB4607072606FA07F18843A5F10A06E9
:1003400006EB460603FA06F10843E0600CE020697C
:1003500005EB4507072606FA07F1884305EB450636
:1003600003FA06F108432061072A0FDA606B561E74
:1003700006EB86071F2606FA07F18843561E06EB92
:10038000860605FA06F10843606322E00D2A0FDABB
:10039000206BD61F06EB86071F2606FA07F1884357
:1003A000D61F06EB860605FA06F10843206310E027
:1003B000E06AA2F10D0606EB86071F2606FA07F192
:1003C0008843A2F10D0606EB860605FA06F10843FE
:1003D000E062F0BD816841F008018160704721B1A1
:1003E000826842F4A002826003E0826822F4A002E4
:1003F00082607047816841F00401816070470000AD
:1004000008B50121042000F00DFA0120ADF800002C
:1004100000208DF803006946014800F054F908BD3A
:100420000008014010B5FFF7EBFF00F001F810BD28
:1004300000B591B00121084600F0E4F9012148021D
:1004400000F0F0F9334800F079F83348069033486B
:100450000790002008900120099000200A900B903E
:100460004FF480700C9080000D9020200E900002C0
:100470000F900020109006A9264800F005F90121F0
:10048000244800F04FF8002001908DF8080001206A
:100490008DF809004FF460200390002004900120A3
:1004A0008DF8140001A91C484C38FFF70FFF4FF4DA
:1004B000404000F09BF906230122002116484C38E9
:1004C000FFF72CFF012114484C38FFF7E0FE012113
:1004D00011484C38FFF7D0FE0F484C38FFF77AFF31
:1004E00000BF0D484C38FFF7E7FE0028F9D10A4855
:1004F0004C38FFF77FFF00BF07484C38FFF7D2FEAC
:100500000028F9D1012104484C38FFF768FF11B0E9
:1005100000BD0000080002404C24014008000020FB
:1005200000BFFEE721B1026842F00102026004E070
:1005300002684FF6FE731A400260704701684FF67A
:10054000FE72114001600021016041608160C16064
:100550004B49884208D14A490839496841F00F019E
:10056000474A083A51608AE045491431884208D127
:1005700043490839496841F0F001414A083A51605D
:100580007DE03F492831884208D13D490839496812
:1005900041F470613A4A083A516070E038493C31A0
:1005A000884208D136490839496841F47041344AD3
:1005B000083A516063E032495031884208D13049ED
:1005C0000839496841F470212D4A083A516056E0D3
:1005D0002B496431884208D129490839496841F4D6
:1005E0007001274A083A516049E02549783188422C
:1005F00008D123490839496841F07061204A083A16
:1006000051603CE01F49884206D1011F096841F052
:100610000F01021F116032E01A491431884208D1DB
:100620001849091F096841F0F001164A121F1160AC
:1006300025E014492831884208D11249091F096868
:1006400041F470610F4A121F116018E00D493C31EE
:10065000884208D10B49091F096841F47041094AD1
:10066000121F11600BE007495031884207D105493C
:10067000091F096841F47021024A121F1160704776
:10068000080002400804024010B50022026847F644
:10069000F0739A430C6A8B6823430C6923434C69BB
:1006A00023438C692343CC6923434C6A23438C6ADC
:1006B00023431A430260CB6843600B6883604B6836
:1006C000C36010BD70472DE9F041024600250026A9
:1006D000002000230024002791F803C00CF00F0530
:1006E00091F803C00CF0100CBCF1000F03D091F88E
:1006F00002C04CEA050591F800C0BCF1000F31D0F2
:10070000146800202BE04FF0010C0CFA00F3B1F854
:1007100000C00CEA03069E4220D183004FF00F0C6C
:100720000CFA03F7BC4305FA03FC4CEA040491F805
:1007300003C0BCF1280F06D14FF0010C0CFA00FCED
:10074000C2F814C00AE091F803C0BCF1480F05D10B
:100750004FF0010C0CFA00FCC2F810C0401C082835
:10076000D1D31460B1F800C0BCF1FF0F34DD546880
:1007700000202EE000F1080C4FF0010808FA0CF3FD
:10078000B1F800C00CEA03069E4221D183004FF06D
:100790000F0C0CFA03F7BC4305FA03FC4CEA040403
:1007A00091F803C0BCF1280F05D100F1080C08FA3C
:1007B0000CF8C2F8148091F803C0BCF1480F07D1BF
:1007C00000F1080C4FF0010808FA0CF8C2F810808C
:1007D000401C0828CED35460BDE8F0810161704709
:1007E00000BFFEE700BFFEE77047704701460020EC
:1007F000034A506820F440400843506070470000AE
:100800000010024029B1064A52690243044B5A6162
:1008100004E0034A52698243014B5A617047000069
:100820000010024029B1064A92690243044B9A61C2
:1008300004E0034A92698243014B9A6170470000C9
:1008400000100240704710B500F002F810BD000023
:100850000CB50020019000903348006840F48030CF
:100860003149086000BF3048006800F40030009053
:100870000198401C0190009818B90198B0F5A06F3C
:10088000F1D12948006800F4003010B10120009037
:1008900001E0002000900098012843D1234800681F
:1008A00040F01000214908600846006820F003006D
:1008B00008600846006840F0020008601A48406876
:1008C000194948600846406848600846406840F456
:1008D000806048600846406820F47C104860084604
:1008E000406840F4E81048600846006840F08070B6
:1008F000086000BF0C48006800F000700028F9D0C4
:100900000948406820F003000749486008464068ED
:1009100040F00200486000BF0348406800F00C004F
:100920000828F9D10CBD0000001002400020024050
:100930007047000010B51348006840F001001149ED
:10094000086008464068104908400E49486008465B
:1009500000680E4908400B4908600846006820F40A
:10096000802008600846406820F4FE0048604FF48C
:100970001F008860FFF767FF4FF0006004490860C0
:1009800010BD0000001002400000FFF8FFFFF6FE5F
:1009900008ED00E008B501210820FFF743FF012121
:1009A0000420FFF73FFF40F6FF70ADF80000102075
:1009B0008DF8030003208DF8020069462848FFF7F0
:1009C00082FE0E20ADF8000010208DF803000320F9
:1009D0008DF8020069462348FFF775FE0121204883
:1009E000FFF7FCFE02211E48FFF7F8FE04211C4819
:1009F000FFF7F4FE08211A48FFF7F0FE102118480F
:100A0000FFF7ECFE20211648FFF7E8FE40211448CE
:100A1000FFF7E4FE80211248FFF7E0FE4FF48071FB
:100A20000F48FFF7DBFE4FF400710D48FFF7D6FECD
:100A30004FF480610A48FFF7D1FE4FF40061084887
:100A4000FFF7CCFE02210748FFF7C8FE0421054846
:100A5000FFF7C4FE08210348FFF7C0FE08BD0000F1
:100A6000000C01400008014000BFFEE7FFF792FFC5
:100A7000FFF7D8FC0AE04FF47A7401E0601E84B2FC
:100A8000002CFBDCFFF7DEFB014A03C2F3E70000AA
:100A9000000000202DE9C04130B4DFF8A0C23CEADC
:100AA000111418BF3CEA131400F0EC8081EA03052E
:100AB0001CEA111444EAD57418BF1CEA131500F09F
:100AC000C780A4EB05044FF0004545EAC12145EA83
:100AD000C32341EA505143EA525304F17F749942CF
:100AE00004F500344FEAC0204FEAC22208BF90420A
:100AF00000F09C804FEA13650FF24016765D4FEAD6
:100B0000134506FB05F7C7F1807706FB07F74FEAA9
:100B1000D737A7FB03687642C8F58038A7FB06CE17
:100B200038BFA8F1010807FB08E64FF0000EA6FB4E
:100B3000028CE6FB03CEDCF1000CCEF1004E38BF98
:100B4000AEF1010EA6FB0C584FF000074FF0000568
:100B5000E6FB0E87A1FB08C6A0FB07CE16EB0E0630
:100B600045F10005E1FB076515F1E04E7EBFA4F5F8
:100B700080345FEA46066D4116F1800745F10005B5
:100B80004FEA17274FEA066647EA0567A6F1DE46F1
:100B9000B6F1805F4FEA15251FD9384624F0010CC5
:100BA00005EBC471BCF1FE6F01EB0C1102D8F0BC77
:100BB000BDE8008124425CBF01F5801E9EEAC47F2F
:100BC00002D4F0BCBDE80081244238D4F0BCA1F1CD
:100BD000C041BDE8004100F0C1B94FEAD22242EA6B
:100BE00043524FEAD323A7FB02864FEAD02040EAC4
:100BF000415007FB03661EEA0E0F4FEAD12105FBA9
:100C0000026658BFA6EB0056B6EB00564FEA520EEE
:100C10004EEAC37E18EB0E0E56EB530EBDD518EB05
:100C200002085E417F1C55F10005B6E74FF48015C0
:100C30004FF000074FF000064FF00008ADE7F0BCA2
:100C40004FF0000001F1C04101F00041BDE800811A
:100C500011EA0C1F0CEA131500D00CE013EA0C1F6C
:100C600000F025804FF00000F0BC81EA030101F0A4
:100C70000041BDE80081F0BCBDE8004181EA03010C
:100C800000F06CB9F0BCBDE8004170B500F018F997
:100C9000097EFC3E00F007B881EA03014FF0000036
:100CA00001F00041704781EA030100F057B9F0BC40
:100CB000BDE800414FF0000021497047FFFDFBF9FE
:100CC000F7F5F4F2F0EEEDEBE9E8E6E4E3E1E0DE7F
:100CD000DDDBDAD8D7D5D4D3D1D0CFCDCCCBCAC8F1
:100CE000C7C6C5C4C2C1C0BFBEBDBCBBBAB9B8B718
:100CF000B6B5B4B3B2B1B0AFAEADACABAAA9A8A80B
:100D0000A7A6A5A4A3A3A2A1A09F9F9E9D9C9C9BD8
:100D10009A99999897979695959493939291919083
:100D20008F8F8E8E8D8C8C8B8B8A89898888878714
:100D30008685858484838382828181800000FF0789
:100D40000000F87FB0FA80F310FA03F10AD0C3F183
:100D50001D0303F580634FEA41504FEA035202EB53
:100D6000D12170474FF0000070470000DFF848C104
:100D700070B51CEA111E1EBF1CEA13159EEA0C0F6B
:100D800095EA0C0F00F06F8081EA030423EA4C130C
:100D90004EEAD47E21EA4C1141F4801143F48013D1
:100DA000AE44A1FB024CA0FB0365AEF17F7E361979
:100DB00055EB0C05A1FB034C4CF10003A0FB021CFE
:100DC00016EB0C06654153F10003094218BF46F0CB
:100DD000010613F4007F0BD14FEA03314FEA0530CF
:100DE000340341EA155140EA16506FF003020AE05D
:100DF0004FEAC3214FEAC520F40241EA555140EAC7
:100E000056506FF0020202EB2E4201EB025585EACA
:100E1000CE710AD05FEA440C18BF24F0004450F1B0
:100E2000000041F1000120EAD47040F2FE7C6245EE
:100E300000D270BDA84214BF4FF080444FF0404430
:100E4000002E08BF0024BEF1806FA8BFA1F1C041F1
:100E5000BDE8704080F282804FF0000001F1C04197
:100E600001F0004170479EEA0C0F0CEA131518BF01
:100E700095EA0C0F06D04FF0000081EA030E0EF049
:100E8000004170BD00F01CF88900013E00F007B879
:100E900000F009B84FEA430C5FEA5C5C08D081EAD5
:100EA000030100F05BB84FEA410C5FEA5C5CF6D1ED
:100EB0004FF00000014970470000FF070000F87F75
:100EC0000EF1020E2EF0030E5EF8046B364205D4CE
:100ED000012A43EB030515F5001F12D8012841EB49
:100EE000010C1CF5001F0CD80ED14FEAD17C15F572
:100EF000001F0CEB4C0C0CF1020C08BF4CEBD37C2C
:100F000004E04FF0080C01E04FEAD37C0CEB4C05F9
:100F100026FA05F606F00706B6F1040C06D20EEB2B
:100F2000860CBDE870404CF0010C6047DFE80CF027
:100F3000090B02024FF000414FF00000A1F5002123
:100F400070BD19461046012851EB010418BFD4F5B5
:100F5000001484BF002001F0004170BD0808A0F516
:100F600000114FEA31017047880F0008000000208F
:100F70000C00000028010008940F00080C0000205D
:100F800064060000440100080000000000000000AA
:040F9000000000005D
:04000005080000ED02
:00000001FF
