:020000040800F2
:10000000480F0020890100088109000893070008B3
:100010007D09000877030008951000080000000023
:100020000000000000000000000000001D0F00089C
:100030007B0300080000000083090008311000085D
:10004000A3010008A3010008A3010008A301000800
:10005000A3010008A3010008A30100087D03000814
:10006000A3010008A3010008A3010008A3010008E0
:10007000A3010008A3010008A3010008A3010008D0
:10008000A3010008A3010008A3010008A3010008C0
:10009000A3010008A3010008A3010008A3010008B0
:1000A000A3010008A3010008A3010008A3010008A0
:1000B000A3010008A3010008A3010008A301000890
:1000C000A3010008A3010008A3010008A301000880
:1000D000A3010008A3010008A3010008A301000870
:1000E000A3010008A3010008A301000800F002F822
:1000F00000F03AF80AA090E8000C82448344AAF188
:100100000107DA4501D100F02FF8AFF2090EBAE885
:100110000F0013F0010F18BFFB1A43F0010318473B
:100120006417000084170000103A24BF78C878C113
:10013000FAD8520724BF30C830C144BF04680C60ED
:10014000704700000023002400250026103A28BF35
:1001500078C1FBD8520728BF30C148BF0B60704739
:100160001FB51FBD10B510BD00F0CCF81146FFF74C
:10017000F7FF01F0FFFA00F0EAF803B4FFF7F2FF2F
:1001800003BC00F0F1F80000094880470948004727
:10019000FEE7FEE7FEE7FEE7FEE7FEE7FEE7FEE737
:1001A000FEE7FEE704480549054A064B7047000094
:1001B00035100008ED00000848090020480F002015
:1001C000480B0020480B002040EA0103024630B5EE
:1001D0009B0710D14FF0013400E008C208C91D1B75
:1001E0009D4315EAC41FF8D013F0FF0102F8011B6C
:1001F0000DD01B0AF8E711F8013B002B02F8013B78
:1002000005D011F8013B002B02F8013BF3D130BDC2
:10021000032A40F2308010F0030C00F0158011F832
:10022000013BBCF1020F624498BF11F801CB00F80A
:10023000013B38BF11F8013BA2F1040298BF00F85E
:1002400001CB38BF00F8013B11F0030300F0288018
:10025000083AC0F0088051F8043B083A51F804CB42
:10026000A0E80810F5E7121D5CBF51F8043B40F808
:10027000043BAFF30080D20724BF11F8013B11F813
:1002800001CB48BF11F8012B24BF00F8013B00F857
:1002900001CB48BF00F8012B70477047704770478B
:1002A00010B5203AC0F00B80B1E81850203AA0E811
:1002B0001850B1E81850A0E81850BFF4F5AF5FEA45
:1002C000027C24BFB1E81850A0E8185044BF18C9F8
:1002D00018C0BDE810405FEA827C24BF51F8043B9F
:1002E00040F8043B08BF7047D20728BF31F8023BF3
:1002F00048BF11F8012B28BF20F8023B48BF00F887
:10030000012B7047754600F02BF8AE460500694694
:10031000534620F00700854618B020B5FFF742FF8E
:10032000BDE820404FF000064FF000074FF00008F6
:100330004FF0000B21F00701AC46ACE8C009ACE877
:10034000C009ACE8C009ACE8C0098D46704710B5DB
:100350000446AFF300802046BDE81040FFF70DBF14
:1003600000487047E808002001491820ABBEFEE7AE
:1003700026000200704700BFFEE770472DE9F04FEE
:100380008FB0022000F02CF900287AD0022000F073
:1003900021F978480088784908800846007800F0FC
:1003A00001020121754800F0EFF973480078C0F3AD
:1003B00040020221714800F0E7F96F480078C0F36D
:1003C000800204216D4800F0DFF96B480078C0F32B
:1003D000C0020821694800F0D7F967480078C0F3E7
:1003E00000121021654800F0CFF963480078C0F38F
:1003F00040122021614800F0C7F95F480078C0F33F
:10040000801240215D4800F0BFF95B480078C209C6
:1004100080215A4800F0B8F95748407800F00102AE
:100420004FF48071554800F0AFF953484078C0F35D
:1004300040024FF40071514800F0A6F94E48407850
:10044000C0F380024FF480614C4800F09DF94A48A7
:100450004078C0F3C0024FF40061484800F094F9BE
:1004600045480388028846A1002000F041FC0A208C
:1004700000F0F0FF0421494800F079F904462246D3
:1004800000E074E046A1002000F032FC0421434863
:1004900000F078F90421414800F069F90446224649
:1004A0003FA1002000F024FC0A2000F0D3FF04212B
:1004B0003A4800F065F90421384800F058F904463C
:1004C000224637A1002000F013FC01212B4800F048
:1004D0004EF904460221294800F049F90546042155
:1004E000264800F044F906460821244800F03FF968
:1004F00007461021214800F03AF9804620211F4884
:1005000000F035F9814640211C4800F030F9824660
:1005100080211A4800F02BF983464FF48071174868
:1005200000F025F94FF400710E90144800F01FF907
:100530004FF480610D90114800F019F94FF40061FB
:100540000C900E4800F013F9CDE902BACDE90498F9
:10055000CDE90676CDE908540B90DDE90D01CDE932
:10056000000112A10020DDE90B2300F0C1FB0FB058
:10057000BDE8F08F0200002000000020000C0140C8
:1005800072616461725F69665F7261773A20307888
:100590002578282564290D0A000000000008014084
:1005A0005041323A2025640D0A00000025642025C0
:1005B000642025642025642025642025642025648A
:1005C00020256420256420256420256420256420BE
:1005D0000D0A000001490860704700001404014042
:1005E000014600200022074B1B6803EA0102054B6D
:1005F00014331B680B4013B10AB1012000E0002046
:10060000704700000004014008B50121880500F092
:10061000B9F90121082000F0C5F94FF48060ADF868
:10062000000003208DF802001C208DF803006946AD
:10063000084800F011F84FF40060ADF80000032006
:100640008DF802001C208DF803006946014800F077
:1006500003F808BD000C01402DE9F04102460025D9
:100660000026002000230024002791F803C00CF08E
:100670000F0591F803C00CF0100CBCF1000F03D073
:1006800091F802C04CEA050591F800C0BCF1000FDA
:1006900031D0146800202BE04FF0010C0CFA00F36D
:1006A000B1F800C00CEA03069E4220D183004FF04F
:1006B0000F0C0CFA03F7BC4305FA03FC4CEA0404E4
:1006C00091F803C0BCF1280F06D14FF0010C0CFAD1
:1006D00000FCC2F814C00AE091F803C0BCF1480F56
:1006E00005D14FF0010C0CFA00FCC2F810C0401C00
:1006F0000828D1D31460B1F800C0BCF1FF0F34DD7D
:10070000546800202EE000F1080C4FF0010808FAB0
:100710000CF3B1F800C00CEA03069E4221D183001D
:100720004FF00F0C0CFA03F7BC4305FA03FC4CEA3C
:10073000040491F803C0BCF1280F05D100F1080CA6
:1007400008FA0CF8C2F8148091F803C0BCF1480F05
:1007500007D100F1080C4FF0010808FA0CF8C2F8B4
:100760001080401C0828CED35460BDE8F0810246BA
:100770000020D3680B400BB1012000E0002070473F
:1007800041617047016170470AB1016100E0416158
:10079000704700BFFEE721B1028842F48062028008
:1007A00004E002884FF6FF331A400280704770B5AC
:1007B00002460024002500230020958A138B1B0489
:1007C00045EA030626F07F4404EA01068E4201D181
:1007D000012000E0002070BD21B1028842F001023A
:1007E000028004E002884FF6FE731A4002807047D0
:1007F00021B1028842F48072028004E002884FF640
:10080000FF631A400280704721B1028842F40072EF
:10081000028004E002884FF6FF531A4002807047BE
:100820001AB183880B43838002E083888B438380E3
:10083000704700002DE9F04385B004460D460026C0
:10084000B1460427DFF8CC80A6884FF6C07006407A
:10085000684600F0B7F8DDF808802F48B8FBF0F0E4
:100860001FFA80F946EA0906A68020884FF6FE7135
:100870000840208000262949286888420CD828682A
:100880004000B8FBF0F087B2042F00DA04273E43A3
:1008900009F10100208427E0E8884BF6FF718842C7
:1008A00006D1286800EB4000B8FBF0F087B209E001
:1008B000286800EBC00101EB0010B8FBF0F087B234
:1008C00047F48047C7F30B0008B947F0010747F426
:1008D000004006434FF4967009FB00F04FF47A7124
:1008E00090FBF1F0401C2084A683208840F001009A
:1008F000208026884FF6F5300640A888698908438D
:1009000006432680A88929890843208105B0BDE8CF
:10091000F083000000127A0040420F00A086010020
:100920000146088AC0B2704712B141F0010102E0ED
:100930004FF6FE7319400182704701827047000034
:1009400010B50446224603A1002000F0D1F9002092
:1009500010BD0000693263206D617374657220748C
:10096000696D656F75742C206572726F72636F6448
:1009700065203D2025640D0A0000000000BFFEE751
:100980007047704729B1064AD2690243044BDA61C5
:1009900004E0034AD2698243014BDA6170470000E8
:1009A0000010024029B1064A92690243044B9A6141
:1009B00004E0034A92698243014B9A617047000048
:1009C0000010024030B500210022002400232D4DEC
:1009D0006D6805F00C0121B1042905D0082923D147
:1009E00005E0294D056022E0274D05601FE0254DFB
:1009F0006D6805F47012234D6D6805F4803402258E
:100A000005EB92421CB9214D554305600BE01D4D8D
:100A10006D6805F400351DB11C4D5543056002E0BD
:100A2000194D5543056002E0174D056000BF00BF3A
:100A3000144D6D6805F0F0010909154D6B5C0568F2
:100A4000DD4045600F4D6D6805F4E061090A104D09
:100A50006B5C4568DD4085600A4D6D6805F460514A
:100A6000C90A0B4D6B5C4568DD40C560054D6D687E
:100A700005F44041890B074D6B5CC568B5FBF3F588
:100A8000056130BD0010024000127A0000093D00EF
:100A900008000020180000202DE9F05F05460F46F1
:100AA00090469946DFF860B000BF9BF8000008B997
:100AB00000F0F2FA00BFDFF850A0032D1FD2EFF3D1
:100AC00011810846202181F3118800BF00BF05EB8A
:100AD00045020AF1180101EBC2043DB12760C4F8D8
:100AE0000480C4F8089000212161E1600A996161E5
:100AF000C1B281F3118800BF00BF002601E04FF0B2
:100B0000FF363046BDE8F09F3004002038B50122A2
:100B10006946002000F00EF80446012C02D19DF831
:100B2000004001E04FF0FF34204638BD10B500F022
:100B3000B3FA10BD2DE9F04104460D461646EFF319
:100B400011808046202080F3118800BF00BF32460C
:100B50002946204600F00AF8074608F0FF0080F317
:100B6000118800BF00BF3846BDE8F0812DE9F74F7E
:100B700082B0834617462648009000BF0098007850
:100B800008B900F089FA00BF0BEB4B012048603038
:100B900000EBC106DDF80C903569D6F80CA04FF0DB
:100BA0000008554517D9B068441BBC4201D2204605
:100BB00000E03846044670682844019022464846C2
:100BC0000199FFF725FBA044A1443F1B2544B068D1
:100BD000A84200D10025AAEB0504BC4201D2204660
:100BE00000E0384604465CB1706828440190224613
:100BF00048460199FFF70CFBA044A1443F1B254444
:100C0000B8F1000F00D03561404605B0BDE8F08F67
:100C10003004002010B500BFFFF778FF0028FBDB91
:100C200010BD00002DE9F04104460D4616460E4F5A
:100C300000BF387808B900F02FFA00BFEFF3118039
:100C40000746202080F3118800BF00BF32462946A6
:100C5000204600F00BF88046F8B280F3118800BF00
:100C600000BF4046BDE8F081300400202DE9F04788
:100C7000074688461646C24607EB47011B4800EB6D
:100C8000C109D9F8140020B1012811D0022826D1B9
:100C90001EE0484600F038FA0546B54201D200246D
:100CA00005E0344632465146484600F084FB18E0E1
:100CB000484600F029FA0546B54201D2284600E030
:100CC0003046044622465146484600F074FB08E090
:100CD00032465146484600F033FB044601E000240A
:100CE00000BF00BF2046BDE8F08700004804002098
:100CF0000FB438B5044606A800906A462046059908
:100D000000F007F8054600200090284638BC5DF842
:100D100014FB2DE9F04F99B082460D46144603A806
:100D200014904020159000201690CDF860A01790E8
:100D300000BF2E786D1C06B9DDE0252E79D1002785
:100D40004FF0010900BF2E78232E12D02B2E0CD08D
:100D50002D2E02D0302E10D103E047F001076D1C7C
:100D60000EE047F002076D1C0AE047F004076D1C17
:100D700006E047F008076D1C02E04FF0000900BFD5
:100D800000BFB9F1000FDED14FF0000800BF2E7890
:100D9000302E01DB392E00DD07E06D1CA6F130009E
:100DA00008EB880100EB4108F1E700BF0020139039
:100DB0002E782E2E12D16D1C00BF2E78302E01DB26
:100DC000392E00DD09E06D1CA6F13000139901EB0E
:100DD000810100EB41001390EFE700BF2E7800BFC8
:100DE0006C2E01D0682E02D16D1C2E7800E000E040
:100DF000F6E700BF702E5DD008DC252E6AD0582E95
:100E000035D0632E09D0642E69D113E0732E3CD007
:100E1000752E1DD0782E62D128E02168081D206033
:100E2000D1F8009009F0FF0B594614A800F066FABB
:100E300056E058E02168081D2060D1F80090CDE907
:100E400000870A22494614A8139B00F06BF947E07B
:100E50002168081D2060D1F80090CDE900870A22A2
:100E6000494614A8139B00F0D3F939E000BF21686C
:100E7000081D2060D1F80090CDE900871022494676
:100E800014A8139B00F0C4F92AE02168081D206013
:100E9000D1F800B000BF9BF800600BF1010B06B960
:100EA00006E0314614A800F029FA17980028F2DA73
:100EB00000BF15E02168081D2060D1F800900020D7
:100EC00008210B461022CDE90010494614A800F075
:100ED0009FF905E0252114A800F010FA00E000BFFA
:100EE00000BF6D1C03E0314614A800F007FA179804
:100EF0000028BFF61EAF00BF179800280ADD16981D
:100F000020B103A95046169AFFF78CFEDDE91610B2
:100F100008441790179819B0BDE8F08F704710B5C6
:100F200000F002F810BD00000CB500200190009008
:100F30003348006840F480303149086000BF3048D1
:100F4000006800F4003000900198401C0190009867
:100F500018B90198B0F5A06FF1D12948006800F4E4
:100F6000003010B10120009001E0002000900098B6
:100F7000012843D12348006840F01000214908604F
:100F80000846006820F0030008600846006840F04A
:100F9000020008601A4840681949486008464068DD
:100FA00048600846406840F48060486008464068F1
:100FB00020F47C1048600846406840F4E81048601F
:100FC0000846006840F08070086000BF0C48006868
:100FD00000F000700028F9D00948406820F00300B4
:100FE000074948600846406840F00200486000BF7A
:100FF0000348406800F00C000828F9D10CBD00003F
:101000000010024000200240042808D14FF0E021E7
:10101000096941F004014FF0E022116107E04FF04F
:10102000E021096921F004014FF0E02211617047CD
:101030007047000010B51348006840F001001149E6
:10104000086008464068104908400E494860084654
:1010500000680E4908400B4908600846006820F403
:10106000802008600846406820F4FE0048604FF485
:101070001F008860FFF753FF4FF0006004490860CD
:1010800010BD0000001002400000FFF8FFFFF6FE58
:1010900008ED00E000BFFEE710B5124C0320206110
:1010A000606111A0A0611349E1614FF48061216288
:1010B0000021A1626162E1620BA020660E496166B7
:1010C0001021A16600212167E16661670BA1E01D87
:1010D000FFF77AF80AA12046FFF776F82020A071E2
:1010E00010BD0000300400205465726D696E616CA3
:1010F00000000000D8040020D808002052545400FA
:10110000534547474552000010B501460A69CB6870
:101110009A4204D88C68641EE41AA01801E0D41A1C
:10112000601E10BD2DE9FC5F06460F4692469846AC
:10113000DDE90C45002F01DA784200E038468346AD
:101140004FF0010903E09BFBFAFB09F10109D345CC
:10115000F9DAC84500D9C14634B1002F03DB05F0E8
:101160000400042800D1641E05F0020010B1B8F19B
:10117000000F11D005F0010070B96CB108E0641ED9
:101180002021304600F0BAF8F068002800DA02E0CA
:101190000CB1A145F3D300BFF068002836DB002F67
:1011A00005DA7F422D21304600F0A8F807E005F06F
:1011B0000400042803D12B21304600F09FF8F0688A
:1011C000002823DB05F00200022814D105F00100FD
:1011D00088B9B8F1000F0ED16CB108E0641E30215F
:1011E000304600F08BF8F068002800DA02E00CB11D
:1011F000A145F3D300BFF068002807DB4346524601
:1012000039463046CDE9004500F002F8BDE8FC9FC4
:101210002DE9FC5F8046894615461E460C9CCDF89C
:1012200004900127BB4605E00198B0FBF5F0019062
:101230000BF1010B0198A842F6D25E4500D9B346E6
:101240000D9800F00100D0B9CCB10D9800F002006B
:10125000022803D116B93020009001E02020009030
:1012600009E0641E4046009900F048F8D8F80C00E8
:10127000002800DA02E00CB1A345F2D300BFD8F891
:101280000C00002835DB09E0012E01D9761E04E0B0
:10129000B9FBF7FAAA4500D201E06F43F4E700BFBB
:1012A00000BFB9FBF7FA0AFB1799134810F80A10A8
:1012B000404600F023F8D8F80C00002800DA03E0DC
:1012C000B7FBF5F7002FECD100BF0D9800F001003F
:1012D00078B174B109E0641E2021404600F00EF898
:1012E000D8F80C00002800DA02E00CB1A345F2D3D4
:1012F00000BFBDE8FC9F00007418000870B50446EC
:101300000E46A568681C6168814206D32068465570
:10131000681CA060E068401CE060D4E901108842CD
:101320000DD1A26821682069FFF77CFCA168884282
:1013300003D04FF0FF30E06001E00020A06070BDFE
:101340002DE9F05F0446894617464FF0000AE5682C
:1013500000BFD4F81080A84503D9A8EB0500461EAD
:1013600004E0A5EB0800401CA1680E1AA068401B11
:10137000B04201D9304601E0A068401B0646BE429B
:1013800001D2304600E038460646606800EB050BA7
:10139000324649465846FEF73BFFB244B144BF1BB4
:1013A0003544A068A84200D10025E560002FD0D1C7
:1013B0005046BDE8F09F2DE9F047044689461546A2
:1013C000E668A068871BAF420AD9606800EB060A8E
:1013D0002A4649465046FEF71BFF7019E06014E0AC
:1013E000B846606800EB060A424649465046FEF79A
:1013F0000FFFA5EB0708D4F804A009EB070142464C
:101400005046FEF705FFC4F80C80BDE8F0870000E9
:1014100010B56FF00400FFF7F7FD0A4800680A49AD
:10142000B0FBF1F0094908700846007800EB400174
:10143000C1EBC0104FF6FF7101EAC00004490880FB
:1014400010BD00001C00002000127A0004000020E3
:10145000060000200146114A12784A434FF0E0236B
:101460005A6100229A611A46126942F001021A6119
:1014700000BF4FF0E022106900F001021AB100F441
:101480008032002AF5D04FF0E022126922F00102EA
:101490004FF0E0231A6100229A6170470400002097
:1014A0001FB50020ADF804004BF6FF70ADF8060044
:1014B0000A20ADF808004FF48060ADF80A00000182
:1014C000ADF80C0042F21070009069460648FFF734
:1014D000B1F901224FF4C0610348FFF7A1F90121DE
:1014E0000148FFF779F91FBD005800402DE9F04190
:1014F000044600250027002601213448FFF778F92B
:101500004FF4801508E0281EA5F1010504D10A203A
:10151000FFF716FABDE8F0812D492C48FFF747F98F
:101520000028F0D001220C212848FFF7FDF94FF4E4
:10153000801507E0281EA5F1010503D10B20FFF758
:10154000FFF9E7E72249491C2048FFF730F9002856
:10155000F0D032E0012C07D100211C48FFF71BF925
:1015600001211A48FFF750F94FF4200507E0281E23
:10157000A5F1010503D10C20FFF7E2F9CAE71449F0
:101580003F311248FFF713F90028F0D00F48FFF75A
:10159000C7F90746022E08DA701CC6B223463A463F
:1015A0000CA10020FFF7A4FB05E023463A4612A158
:1015B0000020FFF79DFB601EC4B2002CCAD10121A0
:1015C0000248FFF7E8F80120A4E7000000580040B7
:1015D00001000300693263206D61737465722072CB
:1015E00065762064756D6D793A20307825303278D3
:1015F000202D2025640D0A00693263206D6173740B
:101600006572207265763A20307825303278202D48
:101610002025640D0A00000070B505460024012154
:101620005148FFF7E5F84FF4801407E0201EA4F1BD
:10163000010403D10320FFF783F970BD4B494A48E9
:10164000FFF7B5F80028F1D000220C214648FFF73B
:101650006BF94FF4801407E0201EA4F1010403D1BC
:101660000420FFF76DF9E8E741493F48FFF79FF88D
:101670000028F1D029463C48FFF75FF94FF4801469
:1016800007E0201EA4F1010403D10520FFF758F95B
:10169000D3E73749891C3448FFF789F80028F0D090
:1016A000A81CC1B23048FFF748F94FF4801407E096
:1016B000201EA4F1010403D10620FFF741F9BCE785
:1016C0002B49891C2848FFF772F80028F0D0281D04
:1016D000C1B22548FFF731F94FF4801407E0201E0E
:1016E000A4F1010403D10720FFF72AF9A5E7204957
:1016F000891C1D48FFF75BF80028F0D0A81DC1B277
:101700001948FFF71AF94FF4801407E0201EA4F1DE
:10171000010403D10820FFF713F98EE71449891C4F
:101720001148FFF744F80028F0D005F10800C1B2D5
:101730000D48FFF702F94FF4801407E0201EA4F1D2
:10174000010403D10920FFF7FBF876E70849891C5B
:101750000548FFF72CF80028F0D001210248FFF7D8
:1017600053F8012069E70000005800400100030021
:10177000820007000EB500250024FEF745FFFFF7A5
:101780008FFE00F03DF8FFF743FE1AE06D1CFFF7F7
:1017900041FAC4B22046FFF73FFF04F10800A11D43
:1017A000221DA31CCDE900210290224605A10020A4
:1017B000FFF79EFAFFF72EFAC4B20720FFF796FE56
:1017C00000BFE3E7693263206D6173746572207452
:1017D0007269676765723A20307825303278203038
:1017E00078253032782030782530327820307825CE
:1017F000303278203078253032780D0A0000000031
:1018000008B500204FF48063074A08A1009001202A
:10181000FFF742F9FFF78AF907A309A20AA10020FE
:10182000FFF766FA08BD0000300000204A53636FDE
:1018300070655F55320000001B5B306D00000000DA
:101840001B5B343B34316D00257370686F73656EBC
:10185000736520726164617220636869703A205810
:101860004252383230204932432044454D4F25738F
:101870000D0A0000303132333435363738394142C1
:1018800043444546A4180008000000203000000032
:1018900028010008D418000830000020180F0000AC
:1018A00044010008000000000000000000000000EB
:1018B00001020304010203040607080902040608E2
:1018C00000A24A040000000000000000010203041E
:0418D00006070809F6
:04000005080000ED02
:00000001FF
