:020000040100F9
:1000000097110000938101C11381011B731001340A
:10001000EF008072EF00807EEF00800001A0000002
:10002000511106C437150001130505BEEF00100677
:10003000EF00C07EE35EA0FEEF00B000D5BF23124C
:10004000050023110500231305008280311106C825
:1000500022C626C483540500835765006382F40AD0
:10006000B387F440C207C1833E876373F6003287CB
:100070002EC22A8493170701C1833EC083572500EF
:100080000357450063E8E7049D8CC204C180024623
:1000900063E8C404084592453E95EF00F015835788
:1000A00024000247BA97C207C1830357040063754F
:1000B000F700998FC207C1832311F40083576400AE
:1000C0000247BA972313F4000245C2403244A244C7
:1000D00051018280084502463E95EF00F011C1B7FC
:1000E0000845268692453E95EF00101102473306DB
:1000F00097409247B38597000844EF00F00F45B74B
:1001000002C0D9B7311106C822C626C403546500FF
:1001100031CCA28763738600B2872EC2AA8413945F
:100120000701418003570500835745001D8F420793
:1001300041833AC02E8581C9636087048C4422863E
:10014000BE95EF00700B83D74400A297C207C1830E
:1001500003D704006375F700998FC207C183239208
:10016000F40083D76400818F2393F4002285C2407A
:100170003244A244510182808C440246BE9512450D
:10018000EF00900782473306F4408C441247330552
:10019000F700EF00700645BF828013172500938794
:1001A0000100BA979843050798C39C4B99C7511112
:1001B00006C48297A2403101828082808D4763C746
:1001C000A7000A05938701003E950CC982808D47E0
:1001D00063C3A702C147B397A70099C53707021F9A
:1001E0000843C98F1CC382803707021F084393C787
:1001F000F7FFE98F1CC38280511106C4B707021FA5
:100200007D57D8CB85450D45D937A2403101828035
:10021000511106C4014719A89316270093870100BE
:10022000B69723A0070023A8070005078D47E3D54D
:10023000E7FED937A240310182808D4763D4A70001
:10024000014582800A05938701003E95084182801E
:1002500001C93707021F1C4393E727001CC3828094
:100260003707021F1C43F59B1CC38280B707021F80
:10027000E8478280511106C422C22A84C53F6379AF
:10028000A4003305A4407D15A240124431018280B0
:100290003305A440D5BF511106C4E93F11051181B2
:1002A000A24031018280511106C4E93791659385DE
:1002B00005E81105EF00C06CA240310182805111A8
:1002C00006C422C226C02A845537AA841204268571
:1002D0005537E36E85FEA24012448244310182808C
:1002E000511106C422C226C02A844937AA84931712
:1002F0005400818F139527002295131475002685CD
:10030000953FE36E85FEA240124482443101828013
:10031000854763D4A70001458280511106C422C2DB
:1003200026C0AE842A8416051306000281459387F1
:10033000011B3E95EF00007A49C09387011B3707E8
:10034000051F98D35D47D8D3931754001387011B1B
:10035000BA979C4323A00700A5CC94406389060E5E
:1003600083C7440099CB931754001387011BBA9796
:1003700094CB03C744002394E70083C7540099CF6C
:10038000944083C74400BE96931754001387011B03
:10039000BA97D4CF03C75400239AE70083C66400FA
:1003A0009307F00F6384F60293F6860383C7740005
:1003B00049476371F702BD4731A83707051F23A8D6
:1003C000E11A9387011B5547D8C3BDBF8D46F9BFBE
:1003D000BD478D46931454001387011BBA9498406F
:1003E00054C313972700938701F7BA978C4313D50B
:1003F0001500B727F400938707403E9551237D15DC
:1004000093578500984093F7F70F1CCF9C401375C6
:10041000F50FC8CF98401C4393E7070B1CC383D745
:1004200084008DCBDC40938707408A07370780E044
:100430003E978347170093F7F70F93E71700A30042
:10044000F7000545A2401244824431018280BD4735
:100450008D4649B70545FDB7211106CA22C826C6F3
:100460002AC2931755001387011BBA979C433EC0BD
:10047000804B35A082479C473EC492471395570056
:100480009387011B3E9505462C002105C136894402
:1004900011A0A944058819EC824784CB804B93773F
:1004A0001401A5CB93770401EDD793770406F9D314
:1004B0008944CDB7F5989247139557004105938726
:1004C000011B3E9505462C0011052D398547630E0D
:1004D000F5029246939756001387011BBA9783D76C
:1004E000A701DDFB939756001387011BBA97DC43E6
:1004F000938717408A07370780E0BA9703C717002A
:100500001377E70FA380E70041BFA24702475CC70C
:10051000C9B7D2404244B244610182801301C1FD97
:1005200006D022CE26CC2AC42EC632C0854763CB45
:10053000A712AA84368401E682473EC22DA23D332B
:100540002AC8939754001387011BBA97844383D713
:1005500047013EC2CDE78247C5EB31A2A2479607CD
:100560003EC8138507011384011B22950246B2453C
:100570001105E93CC2473E948357A4018DC7A247A9
:1005800096071387011BBA97DC43938717408A07A6
:10059000370780E03E978347170093F7F70F93E7FD
:1005A0001700A300F700B247AA973EC68247898F7B
:1005B000C207C1833EC092473E9593170501C18390
:1005C0003EC28247CDC3A24796071387011BBA9745
:1005D00003D7470183D7A701E312F7F8DC489D8BC7
:1005E000EDF3A2471395570041059387011B3E95F4
:1005F00005464C0811053936D247DCC4D9B702C2CA
:10060000C9B7DC489D8B81CBE34D04FE424561397F
:10061000E34985FE89A89C48F59B9CC8B24713878F
:1006200017003AC483C70700DCC48247FD17C2071E
:10063000C1833EC092471385170093170501C183FC
:100640003EC221A09C48858B81CBE34D04FE4245F0
:100650009939E34985FE01A89C48F59B9CC8A247AF
:100660003EC6D5BD02C2124582507244E244130117
:1006700041028280011106CE22CC26CA36C28547AD
:100680002AC463C4A70AAE84328419E232C079A8AE
:10069000F13E2AC82247931757001387011BBA97C8
:1006A00098433AC683D787003EC0B9C302C03DCC49
:1006B000A247139557009387011B3E952286A68576
:1006C00021058934AA94098C4204418082473E95D1
:1006D00093170501C1833EC09247E3CA07FC424518
:1006E000D9369247E345F5FC91A0924763D90702BA
:1006F00015CC32471C4BC18BEDDB1C472380F4002B
:100700001C4BBD9B1CCB7D1442044180824713854A
:10071000170093170501C1833EC08504F9B7424510
:1007200059369247E346F5FC11A002C00245F2405B
:100730006244D24405618280511106C4F327007CD3
:1007400037074000D98F7390077C370780E05C4300
:10075000D5838607F98B2300F70001479307F00341
:1007600063C0E7029307074093962700B70780E02E
:10077000B6972380070085462381D7000507F9BF78
:10078000371780E08D472307F7008347D70093F79B
:10079000F70F93E71700A306F7009D3CB74700E06B
:1007A0009843DC43B366F7008DC6374700E0032368
:1007B000070083234700B7770200938707109A97B3
:1007C00033B56700B30675001CC354C3A2403101A2
:1007D0008280B7C700E003A587FF83A5C7FFB7776F
:1007E000020093870710AA9733B7A7003E86B30687
:1007F000B700B74700E090C3D4C3C9BF511106C4C6
:100800002120A24031018280511106C48145014559
:10081000013623A00102A24031018280411106C6A7
:10082000854605469305310003A50102A13585479C
:100830006317F50003453100B240410182807D55C8
:10084000E5BF411106C622C42A84A9476301F50207
:1008500022C0854605468A8503A50102C131854728
:100860006314F5020545B240224441018280B54738
:100870003EC0854605468A8503A501024531854768
:10088000E308F5FC7D55C5B77D55F1BF511106C490
:1008900022C226C02A8481440345040001C90504FC
:1008A0004D3785476314F5008504FDB72685A240C2
:1008B0001244824431018280411106C622C42A8436
:1008C000135745009387C1FBBA9783C707003EC003
:1008D000854605468A8503A501028931854763144B
:1008E000F5023D889387C1FB3E94834704003EC0D8
:1008F000854605468A8503A501020D3185476319A2
:10090000F500094511A07D55B24022444101828085
:100910007D55DDBF511106C422C22A842181693F61
:100920008947631DF5001375F40F793789476319FB
:10093000F5001145A2401244310182807D55DDBF92
:100940007D55CDBF511106C422C22A844181D937B9
:100950009147631EF500131504014181653F9147DE
:100960006319F5002145A2401244310182807D5572
:10097000DDBF7D55CDBF0000634E050263C3050496
:100980002E86AA857D5515C285466378B6006356C6
:10099000C00006068606E36CB6FE014563E4C500AA
:1009A000918D558D85820582F5FA82808682C93FB8
:1009B0002E8582823305A04063D70500B305B04081
:1009C000C1B7B305B0408682653F3305A04082823F
:1009D000868263C70500634905005D372E858282E4
:1009E000B305B040E35B05FE3305A040513F33053E
:1009F000B040828200000000B3C7A5008D8B330792
:100A0000C50081E78D4763E9C702AA876371E50CDA
:100A100083C6050085078505A38FD7FEE3EAE7FEB9
:100A2000828083C6050085078505A38FD7FEE3EA8C
:100A3000E7FE02441101828093763500AA8791CAAD
:100A400083C6050085078505A38FD7FE93F637007B
:100A5000FDB79376C7FF138606FE63F5C7067111CF
:100A600022C0C04903A3050083A38500C0CB804DED
:100A700023A0670003A3450080CFC04D23A26700D9
:100A800083A2C50003A3050193854502C0CF03A43B
:100A9000C5FF23A4770023A6570023A867009387E8
:100AA000470223AE87FEE3EEC7FAE3F2D7F89041A0
:100AB0009107910523AEC7FECDBF904191079105E7
:100AC00023AEC7FEE3EBD7FEE3E4E7F48280828047
:100AD000000000003D432A876373C3029377F70049
:100AE000BDEFADE5937606FF3D8ABA960CC34CC3C5
:100AF0000CC74CC74107E36BD7FE11E28280B306F7
:100B0000C3408A069702000096966780A6002307D6
:100B1000B700A306B7002306B700A305B700230557
:100B2000B700A304B7002304B700A303B70023034F
:100B3000B700A302B7002302B700A301B700230147
:100B4000B700A300B7002300B700828093F5F50F2C
:100B500093968500D58D93960501D58D61B79396B3
:100B600027009702000096968682E78086FA968094
:100B7000C1171D8F3E96E374C3F8A5B700000000AF
:100B80004B0000006E000000960000002C010000E9
:100B900058020000B00400000807000060090000CF
:100BA000C0120000201C000080250000403800001A
:100BB000004B00000096000000E1000000C20100B0
:100BC000008403000008070000100E0030313233AB
:100BD0003435363738394142434445460000000039
:100BE0002D2D2D2055617274207465737420417011
:100BF0007220203720323032312031343A30323ACC
:100C000034382D2D2D0A00000000000000000000E7
:0400000501000000F6
:00000001FF
