:020000040100F9
:10000000B702400073A0027C970100009381813900
:10001000170500001305051F1365350073105530D3
:10002000138501CA73107530138141207310013498
:10003000EF00601F01A000000000000000000000B1
:1000400000020001000200010002000100020001A4
:100050000002000100020001000200010001000195
:100060000002000100020001000200010002000184
:100070000002000100020001000200010002000174
:100080000001000100010001000100010001000168
:100090000001000100010001000100010001000158
:1000A0000001000100010001000100010001000148
:1000B0000001000100010001000100010001000138
:1000C0000001000100010001000100010001000128
:1000D0000001000100010001000100010001000118
:1000E0000001000100010001000100010001000108
:1000F00000010001000100010001000100010001F8
:10010000797116C21AC4F3221034732320341AD41E
:1001100016D67360043006C01EC62AC82ECA32CC5A
:1001200036CE3AD03ED21375F33FEF0020147370F1
:100130000430A25513F5F53F37E600E0130606102C
:100140002A968306060005471347F7FFB377D700C3
:100150002300F600B72200009382028873A00230C9
:1001600073902534B25273901234824092422243EB
:10017000B2434245D2456246F24602579257456124
:1001800073002030711116C0F322203463C10206BF
:100190001101938241409382C2FB23A0120023A24B
:1001A000220023A4320023A6420023AA620023AC2B
:1001B000720023AE820023A0920223A2A20223A4F3
:1001C000B20223A6C20223A8D20223AAE20223ACCF
:1001D000F2027325103423AEA2027325003023A04F
:1001E000A20416858322C1FF2A8116C801A082427B
:1001F00011016FF0FFF01300000013000000010078
:1002000051B70000B707041F314798C30547D8C34B
:10021000371780E08347D70593F7F70F93E7170069
:10022000A30EF7048280511106C473600430D93FD5
:1002300001A0238A0150A38A0150B707051F23A0FC
:1002400007000D47D8C3054798CF5547D8CF9843E7
:100250001367070B98C3371780E08347970493F71A
:10026000F70F93E71700A304F7048280DD476303C9
:10027000F5008280B707041FD84B13670701D8CB5E
:100280009C4BA18B91CFB707041FD84B13678700F6
:10029000D8CB9C47A1872386F14005472380E10006
:1002A000B707041F9C4B858B9DCBB707041FD84B0A
:1002B00013671700D8CB9C4BC18BB1CF938701003C
:1002C00003C707009386C140369783460700370768
:1002D000041F54C703C7070005072380E700B707BB
:1002E000041F9C4B898B99C73707041F5C4B93E70E
:1002F00027005CCBB707041F9C4B918BBDDBB70776
:10030000041FD84B13674700D8CB9C4BC18BB5F368
:1003100023800100B9BFB707041F9047138701006E
:10032000834607009387C140B6972380C7008506A0
:100330002300D7006DB783C7515103C74151638C68
:10034000E70093861700A38AD15013874141BA97DB
:1003500003C5070082807D558280A947630FF500A1
:10036000B707051FDC4B9D8BE5FFB707051F984BB3
:100370001367270098CBC8C78280B707051FDC4BDF
:100380009D8BE5FFB707051F984B1367270098CB98
:100390003547D8C7F1B7000000000000000000009A
:0400000501000000F6
:00000001FF
