:1000000097010001938101001381011073100134E5
:100010001305000C938501001386010063FCC500E5
:100020008322050023A05500130545009385450054
:10003000E3E8C5FEEF000001EF000001EF00000162
:100040006F0000006780000067800000B717400065
:1000500083C70780638A0704930700006F000002CC
:1000600037174000130707803387E7002300F700A6
:10007000938717009397070193D707011307F00F92
:10008000E370F7FE6F00000037174000130707808A
:100090003387E70093C6F7FF2300D7009387170045
:1000A0009397070193D707011307F00FE37EF7FC3F
:1000B0006FF05FFD00000000000000000000000085
:00000001FF
