:020000040800F2
:104000006019002021410008474D0008F54A0008CA
:10401000454D000807420008215D0008000000002F
:1040200000000000000000000000000039500008FF
:104030007947000800000000D54E00083D580008F0
:104040003B4100083B4100083B4100083B41000860
:104050003B4100083B410008FD4700083B41000888
:104060003B4100083B4100083B4100083B41000840
:104070003B4100083B4100083B4100083B41000830
:104080003B4100083B4100083B410008735B0008CE
:104090002D5C00083B4100083B4100083B41000803
:1040A0003B4100083B4100083B4100083B41000800
:1040B0003B4100083B4100083B4100083B410008F0
:1040C0003B4100083B4100083B4100083B410008E0
:1040D0003B4100083B410008A15900083B41000852
:1040E0003B4100083B4100083B410008DFF80CD091
:1040F00000F04CF800480047499B00086019002078
:10410000EFF30980704780F309887047EFF3088068
:10411000704780F30888704740BA7047C0BA70474C
:104120000648804706480047FEE7FEE7FEE7FEE751
:10413000FEE7FEE7FEE7FEE7FEE7FEE79158000830
:10414000ED40000840EA01039B0703D009E008C9DD
:10415000121F08C0042AFAD203E011F8013B00F84C
:10416000013B521EF9D27047D2B201E000F8012B98
:10417000491EFBD270470022F6E710B513460A46E7
:1041800004461946FFF7F0FF204610BD064C074DC8
:1041900006E0E06840F0010394E807009847103417
:1041A000AC42F6D3FFF7A6FFF8A1000818A200085A
:1041B00070B58C1810F8015B15F0070301D110F8E9
:1041C000013B2A1106D110F8012B03E010F8016B16
:1041D00001F8016B5B1EF9D12B0705D40023521E99
:1041E0000DD401F8013BFAE710F8013BCB1A921C01
:1041F00003E013F8015B01F8015B521EF9D5A142FF
:10420000D8D3002070BDFEE7C1B2000A40EA012009
:10421000704700002DE9F05F224C2068224D288075
:1042200010F4004F08BFBDE8F09F47F6FF77DFF8B6
:104230007C901F4EDFF87CB040F68F7848F60F7AFE
:104240002760288800F00F01880000F1804000F509
:10425000A0403170D0F8002C92B212F4004F0BD075
:10426000D0F8002C02EA0802C0F8002C09EB81000B
:1042700050F8040C80470DE012F0800F0AD0D0F8FF
:10428000002C02EA0A02C0F8002C0BEB810050F867
:10429000040C80472068288010F4004FD0D1BDE87E
:1042A000F09F0000445C0040A40000208800002033
:1042B000DC0900206C0000202DE9F84F0020ADF84B
:1042C00000006E4908686E4C208010F4004F08BF53
:1042D000BDE8F88F4BF6BF786A4F6B4E6B4D48F2D6
:1042E000800940F68F7A48F60F7B208810F00F0087
:1042F000287038D0810001F1804101F5A041D1F84A
:10430000002CADF80020BDF8002012F4004F0BD0B7
:10431000D1F8002C02EA0A02C1F8002C5C4901EB3A
:10432000800050F8040C8047BDF8000010F0800FAA
:1043300011D02978880000F1804000F5A040D0F825
:10434000002C02EA0B02C0F8002C524800EB81005E
:1043500050F8040C804749480068208010F4004F52
:10436000C3D1BDE8F88F38683080308800F0300065
:104370007080308800F440503080386800EA0800CF
:1043800080F4005080F0200040EA09003860208866
:1043900010F0100F38682CD0ADF80000BDF8000008
:1043A00010F4006F44D0386800EA0A00386000F06A
:1043B000F5FF3868318800EA080011F4805F18BF03
:1043C00080F48050318811F4005F18BF80F40050F1
:1043D000718811F0100F18BF80F01000718811F073
:1043E000200F01D080F0200040EA09003860BDE8CD
:1043F000F88F00EA0B00386000F004FC3868318860
:1044000000EA080011F4805F18BF80F48050318802
:1044100011F4005F18BF80F40050718811F0100F84
:1044200018BF80F01000718811F0200FDCD0D9E7A0
:10443000BDF8000010F4004F8DD0386800EA0A0083
:10444000386000F0C9FC3868318800EA080011F4CF
:10445000805F18BF80F48050318811F4005F18BF6E
:1044600080F40050718811F0100F18BF80F0100018
:10447000718811F0200FB7D0B4E70000445C004011
:10448000A4000020005C0040EE090020DC090020B0
:10449000880000206C000020800000F1804000F5C2
:1044A000A040D0F8001C11F4804F08BF7047D0F82E
:1044B000001C48F68F7211404CF280021143C0F884
:1044C000001C7047800000F1804000F5A040D0F84B
:1044D000001C11F0400F08BF7047D0F8001C48F6D0
:1044E0008F72114048F2C0021143C0F8001C70479F
:1044F000800000F1804000F5A040D0F8001C48F694
:104500008F62114048F280021143C0F8001C7047CE
:104510002DE9F047DFF89880264F4FF03009D8F8A2
:10452000001001F11005088A0E7A002808BF042E39
:1045300023D0AC8884422CBF0426022688BF0446C0
:104540002046A96888478246002000F081FA01468B
:104550002246504601F0E6FB2146002000F09AFE7C
:104560002888001B2880688820446880A7F800906D
:1045700011494FF44050088014E010480178012997
:1045800003D00726102038800CE00D4A0021126865
:104590001204D20B02F1804202F5C0425160A7F82A
:1045A00000900170D8F800000672BDE8F0870000A6
:1045B000E0090020F0090020EE090020D8090020C1
:1045C000505C0040F8B5644F644C092538680026FB
:1045D00021684278062A05D0D2B1082A5DD00A2A7D
:1045E00062D078E0027812F07F0F74D180780128D1
:1045F00008BFC96949D0022808BF096A45D0062802
:1046000008BF896A41D0032808BF496A3DD062E0EB
:104610004288002A01BFC288022A0279002A5AD1A0
:10462000027812F07F0F04BF8388002B2CD002F099
:104630007F02012A02D0022A0AD04CE08A6940791E
:1046400000219047002846D13868807AE0B942E0DE
:10465000417901F00F0001F0700211F0800F4FEA74
:10466000800101F1804101F5A041D1F8001C19BF82
:10467000C1F301110901C1F301310903384B1B7862
:10468000834228D93ABB31B3364921B338684682D0
:10469000816100208847002027E0007810F07F0F1C
:1046A00008BF314917D1F0E7027802F07F02012AF2
:1046B00011D1827A7AB14288002A01BF0279002A98
:1046C000C288012A07D18A694079002190470028D1
:1046D00008BF2649D9D021683868096940788847D9
:1046E000032802BF38680572F8BD39680A8AA2F546
:1046F0007F43FF3B04BF0D72F8BD022811BF002AA3
:1047000008200872F8BD087810F0800F1DD0C88806
:104710000090824288BF08820FD22068144B90F824
:104720003000824238BF1E7007D3B2FBF0FC00FBA2
:104730001C20002804BF01201870206890F8300069
:104740008882BDE8F840FFF7E3BE032008720949FC
:1047500000030880F8BD0000E0090020E409002003
:1047600020090020915600082156000869560008CB
:10477000D8090020EE090020704701B400980028F5
:104780001CBF401E0090FAD101B0704701B481B047
:10479000762203E00098411E0091FBD20198411E51
:1047A000019128BF0092F5D202B070470149012063
:1047B000087070470000002000F09EB901F03ABE7A
:1047C000704704F00FB8000010B50649052001F04D
:1047D00041FA81B2034804F035F8BDE810400520E5
:1047E00000F036BD5413002003480069002808BFBC
:1047F000704701F0DBBD00000C14002010B5012053
:1048000000F01CF8002808BF10BD0748026801210D
:10481000002A0EBF01600022026004480160BDE86A
:104820001040012000F004B8A0090020A4090020D5
:10483000014908607047000014040140054A002146
:104840001268054B02401B6803421CBF002A01216D
:10485000084670470004014014040140800000F144
:10486000804048F68F7200F5A04001290BD0022944
:1048700018BF7047D0F8001C11404CF28002114361
:10488000C0F8001C7047D0F8001C114048F2C0026C
:104890001143C0F8001C704708B501214FF4FE70A9
:1048A00000F064FB4FF6FF70ADF8000000208DF8BB
:1048B000030069460B4800F021F869460A4800F0F9
:1048C0001DF86946094800F019F86946084800F0E3
:1048D00015F86946074800F011F86946064800F0E7
:1048E0000DF808BD000C014000100140001401400B
:1048F00000180140001C0140002001402DE9F0019A
:1049000091F803C000220CF00F031CF0100F1CBF25
:1049100091F802C04CEA030391F800C04FF00F0772
:104920001CF0FF0F4FF0010618BF04681CD00D8863
:1049300006FA02FC05EA0C05654511D1950007FA57
:1049400005F824EA080403FA05F52C43CD78282D50
:1049500008BFC0F814C003D0482D08BFC0F810C06D
:10496000521C082AE3D304600A88FF2A87BF4468E0
:104970000022BDE8F001704702F1080C0D8806FA2C
:104980000CFC05EA0C05654511D1950007FA05F800
:1049900024EA080403FA05F52C43CD78282D08BF36
:1049A000C0F814C0CD78482D08BFC0F810C0521C04
:1049B000082AE1D34460BDE8F0017047800000F1AF
:1049C000804000F5A040D0F8000C80B27047000095
:1049D0000649096889B201EBC000400000F180403F
:1049E00000F5C0408088C0F309007047505C00406B
:1049F0000649096889B201EBC000400000F180401F
:104A000000F5C0408089C0F309007047505C004049
:104A10000649096889B201EBC000400000F18040FE
:104A200000F5C040008980B270470000505C004033
:104A30000649096889B201EBC000400000F18040DE
:104A400000F5C0408089C0F309007047505C004009
:104A50000649096889B201EBC000400000F18040BE
:104A600000F5C040008880B270470000505C0040F4
:104A70002DE9F0411D484FF000640168001D0568F4
:104A8000001D00681A4F0E185420B8700020F870EE
:104A90002168C8B2542816D00622391D002000F023
:104AA00005F9082207F11001284600F0FFF8082256
:104AB00007F12001304600F0F9F80220801C502850
:104AC000FCDBBDE8F081080A0622391D00F0EEF893
:104AD000022207F11001606800F0E8F8082207F1EF
:104AE0001401304600F0E2F8E7E70000E8F7FF1FA6
:104AF0001C000020FEE7000010B50449012001F071
:104B0000A9F803490120086010BD0000080A002030
:104B1000900900200022C178001D99B141290DD1D2
:104B200010F8011B10F8012B42EA012110F8012BAB
:104B300042EA012110F8012B42EA012210F8011B80
:104B40000029EBD1074800210170A2F10061B1F505
:104B5000804105D004490A60044A012111600170B6
:104B600001207047281200200400002008000020C7
:104B70000148006870470000900900201C4810B5EB
:104B8000002101601B480078612804D0682808D003
:104B9000692820D018E01748FFF7BCFF021E13DD7C
:104BA0000AE0154802241221047041702246FA21BD
:104BB000002000F097F822460F49812001F05DF8AF
:104BC0003021012000F074FBBDE810404FF440514B
:104BD000012000F023BB012080F3138807480168FF
:104BE000074A01F4E06111430160BFF34F8FFEE714
:104BF00090090020080A0020281200200CED00E097
:104C00000400FA052DE9F041234C2068017A0229BD
:104C100018BF042909D0062918BF08200AD0216826
:104C20000872BDE8F04100F057B9FFF771FC206849
:104C3000007AF4E74178052904BF017811F07F0F6D
:104C400023D1C678154803780020002B84BF48F68E
:104C50008F7C48F2800510D9C1B28A0002F18042EF
:104C600002F5A042D2F8007C07EA0C073943294339
:104C7000C2F8001C401C8342EED8094946F080006F
:104C8000086008480068006A804707480068806834
:104C900080470820C3E70000E00900202009002029
:104CA0004C5C0040E8090020E40900200023002AB1
:104CB00098BF704710B4002400F00F0CBCF10A0F2D
:104CC00034BF0CF1300C0CF1370C01F813C001EBC0
:104CD000430C5B1C0009DBB28CF801409342EBD320
:104CE00010BC70470548416081604FF47A715143B0
:104CF000C16003494FF4004008617047B4090020C7
:104D0000001001400D490E4B4FF40042C8680028C6
:104D100004BF5A617047401EC8608868401E8860A2
:104D200018BF7047486888600878002819BF1A6162
:104D300000205A610120087070470000B40900206B
:104D400000100140FEE770477047000010B4C278C1
:104D500001784FF00F0C01242AB3194A126801F1AF
:104D6000E02102F4E062C2F5E062120AC2F104033B
:104D70002CFA02F290F801C00CFA03F390F802C08A
:104D80000CEA02021A43120181F80024007800F0B4
:104D90001F0104FA01F14009800000F1E020C0F891
:104DA000001110BC704701F01F0004FA00F049091F
:104DB000890001F1E021C1F8800110BC70470000BA
:104DC0000CED00E0034940F0FD7040F080600860A9
:104DD000704700000CED00E02DE9F047304E3468DC
:104DE000207A022818BF042805D0032818BF0528F8
:104DF00008D007284ED0082031680872BDE8F04777
:104E000000F06AB834F8100FDFF89880A1683027F6
:104E1000A9B100B3A588854288BF054628468847C2
:104E200081462088401B20806088284460800020C4
:104E3000FFF7EEFD01462A46484600F03BF8208881
:104E400048B119494FF4405008800021084600F04D
:104E500021FAA8F800702088A188884203D331681D
:104E60000320087213E018B13168052008720EE0C3
:104E70003168062008720D49002009680904C90B31
:104E800001F1804101F5C0414860A8F80070306828
:104E9000007AB1E706480068C06880470820ABE7A1
:104EA000E0090020F0090020EE090020505C0040DD
:104EB000E4090020064B521C520803EB410108BFD5
:104EC000704731F8043B20F8023B521EF9D170477D
:104ED00000600040704700000C4810B590F830109A
:104EE000002000F079F90A480068007A082804D008
:104EF000092804BF012010BD06E006494FF4805088
:104F00000880054910200880002010BDBC0000204A
:104F1000E0090020EE090020F009002009492020C6
:104F200008600949C00008600849012008600020A5
:104F3000074A08600B1D18604FF4E05010800860AD
:104F400000207047100C014014080140405C0040F4
:104F5000EC090020044A0029D16914BF084321EA62
:104F60000000D0617047000000100240044A002990
:104F7000916914BF084321EA000090617047000066
:104F800000100240254A10B45168254B11F00C0165
:104F900018BF042901D0082901D0036015E0516829
:104FA000536801F470114FF0020C13F4803F0CEBC6
:104FB000914103D0536813F4003F03D0194B594378
:104FC000016002E0164B5943016051680F23DFF87E
:104FD00058C003EA11111CF80110036823FA01F10B
:104FE00041605368072404EA13231CF8033021FAB4
:104FF00003F38360536804EAD3231CF80330D940D9
:10500000C1605268032303EA9232ACF104039A5C54
:10501000B1FBF2F1016110BC7047000000100240CA
:1050200000127A0000093D00C80900200149C1F8BA
:10503000D80070470000424270470000024920F04B
:105040000700086070470000505C004070B41149D0
:1050500091F800C00021BCF1000F84BF48F68F74A6
:1050600048F280050FD9CAB2930003F1804303F5DB
:10507000A043D3F8006C264032432A43C3F8002CE7
:10508000491C8C45EFD8044940F08000086070BC92
:1050900070470000200900204C5C004021F0010C0A
:1050A0000C490B6822F001029BB203EBC0035B00CA
:1050B00003F1804303F5C043C3F800C0096889B217
:1050C00001EBC000400000F1804000F5C04082606C
:1050D00070470000505C00402DE9F0032B4F012980
:1050E0001BD002291CBFBDE8F0037047396889B2A4
:1050F00001EBC001490001F1804101F5C0414A6066
:10510000396889B201EBC000400000F1804000F531
:10511000C040C260BDE8F003704739681C4B89B2DB
:1051200001EBC00103EB4106530951085D1E4FF42A
:10513000004801F1010C3E2A1AD91C4612F01F0F3B
:1051400008BFACB248EA842434603C683E2AA4B26A
:1051500004EBC0000F4C04EB400010D912F01F0FFD
:1051600008BFABB248EA83210160BDE8F003704795
:105170000C4612F0010F18BF6446A402E4E712F0D7
:10518000010F18BF61468902EEE70000505C004045
:10519000046000400C600040800000F1804000F599
:1051A000A040D0F8001C48F68F72114048F28012DF
:1051B0001143C0F8001C7047064A21F00101126833
:1051C00092B202EBC000400000F1804000F5C04008
:1051D00081607047505C00400E4A12683E2992B2CE
:1051E00002EBC0000C4A02EB40020BD9480911F057
:1051F0001F0F04BF401E80B24FF4004141EA8020DF
:1052000010607047480811F0010F18BF401C800261
:10521000F6E70000505C00400C600040800000F1A8
:10522000804202F5A042D2F8000C4BF68F73184072
:1052300011F4805F18BF80F4805011F4005F18BF34
:1052400080F4005048F280010843C2F8000C704717
:10525000800000F1804000F5A040D0F8001C4BF623
:105260008F72114081F4405148F280021143C0F81E
:10527000001C7047064A21F00101126892B202EB4D
:10528000C000400000F1804000F5C0400160704760
:10529000505C0040054A126892B202EBC000400028
:1052A00000F1804000F5C04041607047505C004014
:1052B000800000F1804202F5A042D2F8000C48F6CE
:1052C000BF73184011F0100F18BF80F0100011F0DC
:1052D000200F18BF80F0200048F280010843C2F878
:1052E000000C7047800000F1804000F5A040D0F82D
:1052F000002C48F68F131A401143C0F8001C704769
:10530000F8B501210807FFF725FEFFF7C5FA0121CF
:105310001C20FFF72BFE4FF48046ADF800601020F4
:105320008DF803000220134D8DF8020069462846CF
:10533000FFF7E4FA7000ADF8000069462846FFF771
:10534000DDFA2024ADF8004069460B48FFF7D6FA95
:10535000E700ADF8007069460848FFF7CFFA084942
:105360000C600848076003F017FA03F097F92E6104
:10537000F8BD000000100140000C01400008014091
:10538000140C01401008014010B50020FFF74EFE3C
:105390000121BDE81040C805FFF7DCBD70B5544ED3
:1053A000306854490004C00B00F1804000F5C04053
:1053B000514D008980B201EB40042868017A092927
:1053C00012D014F8011B017014F8031B417034F85B
:1053D0000209FEF719FF29684880E088FEF714FFEC
:1053E000296888806089C880296801200872C88877
:1053F00028B1FFF7E7F8BDE87040FFF76DBD08780A
:105400004C7810F07F0F06D000F07F00012843D0C9
:10541000022846D050E0394A092C0BD0052C1BD06D
:10542000032C26D0012C01BFC878012888880028C9
:105430002DD041E0324BC8785B7898429CBF8B7886
:10544000002B06BF8B88002B022034D18872106895
:105450004068804700202EE0C8787F289CBF88786D
:10546000002833D18888002804BF887A00282DD1ED
:105470002EE0C878012804BF888800281CD1487A0B
:1054800040F0200048721068C069804720E0487AE8
:1054900010F0200F0AD10FE00B2C0DD100F09CF979
:1054A00009E0012C02D0032C03D005E000F02EF817
:1054B00001E000F043F958B11249204609684969F2
:1054C0008847032808BF09200FD008B108200CE046
:1054D0000620326800211204D20B02F1804202F54C
:1054E000C0425160084A302111802968087282E761
:1054F000505C004000600040E0090020E809002006
:1055000020090020E4090020F00900202DE9F041E5
:105510003E480068017811F07F0107D0022901BFE1
:10552000418800290179002905D06BE0417A01F01A
:10553000DF01417253E04179354B21F080044FEA9D
:10554000840202F1804202F5A04211F0800FD2F8ED
:10555000002C19BFC2F301121201C2F3013212036F
:1055600093F800C02346A4454CD9002A1CBF807A7A
:10557000002847D011F0800F4FEA840011D000F1CD
:10558000804000F5A040D0F8000CC0F301100128C5
:1055900021D11846FEF796FF30212046FFF788FEFE
:1055A00019E000F1804505F5A045D5F8000CC0F3E1
:1055B000013001280FD14BF68F7748F280068CB16D
:1055C0001846FEF769FFD5F8000C384080F44050CB
:1055D0003043C5F8000C0F48006840698047002040
:1055E000BDE8F0810C4890F830100020FFF7F4FD82
:1055F0000A49D1F8000C384080F440503043C1F8DB
:10560000000CE8E70220BDE8F0810000E00900207E
:1056100020090020E8090020BC00002000500040C4
:1056200010B5074C30B10748006800688047206813
:105630000A3010BD216801200882002010BD000042
:10564000E0090020E8090020064A002813685A8A69
:105650001EBF0868104470478888801A188200208E
:1056600070470000E009002010B5074C30B1074832
:1056700000688068804720680C3010BD21680120D8
:105680000882002010BD0000E0090020E809002089
:10569000274910B5096810B32648002202800A780D
:1056A00012F07F0F1FD002F07F02012A04BF2148B1
:1056B00010BD022A1CBF002010BD49790A0711F055
:1056C000800F4FEA926101F1804101F5A041D1F8CC
:1056D000001C22D0C1F30111012919D021E00220C0
:1056E0000882002010BD497A027811F0200F14BF03
:1056F00042F0020202F0FD02027011F0400FD1B23E
:105700001ABF41F00101017001F0FE0109D102E070
:10571000017841F00101017003E0C1F30131012979
:10572000F6D00548006800698047024810BD0000B7
:10573000E0090020DA090020E8090020234810B51C
:105740000268517921F080004FEA800000F180402A
:1057500000F5A04021F0800CD0F8003C11F0800F43
:1057600019BFC3F301131B01C3F301331B03184C0F
:105770002478644519D9B2F802C0BCF1000F14D1E5
:10578000002B1CBF927A002A0FD011F0800FD0F8A6
:10579000001C48F280020AD048F6BF73194081F01D
:1057A00010011143C0F8001C09E0022010BD4BF6A7
:1057B0008F73194081F480511143C0F8001C0548D3
:1057C000006880698047002010BD0000E0090020CB
:1057D00020090020E809002010B50F4C0F4A20686E
:1057E0001268C17892694079904721688A7A32B10B
:1057F000002801BF087900288878002801D00220FD
:1058000010BD07480068C068804720684179C172B0
:10581000C1780173002010BDE0090020E4090020D8
:10582000E80900204FF0E021042808690CBF40F08F
:10583000040020F00400086170470000104910B512
:10584000086890B10F4802681AB10168491E0160EA
:1058500003E06422026000220A6002680A494FF4F1
:105860000040322A34BF48610861FFF74BFA07480D
:105870000168002908BF10BD0168491E016010BD04
:105880001800002014000020001001409C09002096
:10589000364882B0016841F0010101604268344934
:1058A00011404160016821F4102121F080710160F4
:1058B000016821F480210160416821F4FE0141600A
:1058C0004FF41F018160002200920192016841F4AF
:1058D00080310160016801F4003101910099491C97
:1058E0000091019919B90099B1F5A06FF2D1016841
:1058F00011F4003F08BF019233D0012101911D49ED
:105900000A6842F010020A600A6822F003020A6084
:105910000A6842F002020A604168416041684160E1
:10592000416841F480614160416821F47C1141602B
:10593000416841F4E8114160016841F08071016003
:10594000016811F0007FFBD0416821F00301416044
:10595000416841F002014160416801F00C010829F1
:10596000FAD106490448086002B0704700100240AE
:105970000000FFF8002002400040000808ED00E0B1
:10598000800000F1804000F5A040D0F8001C48F6EF
:105990008F72114048F2C0021143C0F8001C7047DA
:1059A00010B50B4C40F22551204600F03BF8002882
:1059B00018BF02F0FFFE0821204600F02CF8002856
:1059C00008BF10BD2046BDE8104000F0BFB8000081
:1059D00000440040028A4FF2FF031A400B88B1F8DE
:1059E00002C043EA0C03B1F804C0C9884CEA0101C3
:1059F0001943114301827047002101804180818059
:105A0000C18070470029818914BF41F4005121F4FD
:105A10000051818170470246002012880A4218BF57
:105A20000120704710B401F01F020124C1F342139A
:105A300004FA02F24FF0000C012B04BF83891A40D4
:105A400004D0022B0CBF038A838A1A40090A0088FB
:105A500004FA01F10840002A1CBF00284FF0010C95
:105A6000604610BC7047C1F3421301F01F014FF0B4
:105A7000010C0CFA01F1012B08BF0C3003D0022BF2
:105A80000CBF10301430002A026814BF114322EA00
:105A9000010101607047000030B50446008A85B0FE
:105AA0000D464CF6FF710840E98808432082A08922
:105AB0004EF6F3110840A9882A8911436A891043D8
:105AC0000843A081A08A4FF6FF410840A9890843F6
:105AD000A0826846FFF756FAA4F18040B0F59C30EA
:105AE0000CBF03980298A18911F4004F00EBC0018C
:105AF00001EB0010296814BF49008900B0FBF1F0E8
:105B0000114A6FF0180CA2FB0031490909010B0979
:105B100003FB0CF300EB8300A38913F4004F4FF059
:105B2000320314BF03EBC00003EB0010A2FB002004
:105B30004FEA501014BF00F0070000F00F000843B8
:105B4000208105B030BD00001F85EB518088C0F377
:105B500008007047C1F30801818070474FF4165167
:105B6000016000218180C18001810C2242818181FC
:105B70007047FEF74FBB0000064905480222086047
:105B80000272064A0448C1E90102006800470000A9
:105B900040150020E0090020BC000020240900205E
:105BA00038B54FF4C060FFF70DF914208DF80000F0
:105BB00001248DF801408DF802408DF803406846BD
:105BC000FFF7C4F813208DF800008DF80140002085
:105BD0008DF802008DF803406846FFF7B7F838BD2E
:105BE00070B50E4D28680E4C208020880D4E3188EF
:105BF000084010F4004F18BFFEF75EFB2088318884
:105C0000084010F4806F08BF70BD4FF6FF30286069
:105C100005484068BDE8704000470000445C004013
:105C2000A4000020EC090020BC000020FFF7D8BF32
:105C300005490020086005494FF4044008800449E4
:105C40000860002070470000445C0040EC09002020
:105C5000405C004070B504460D4600F07F00FEF742
:105C6000E7FE064604F07F00FEF7D2FE014632460C
:105C70002846FFF71FF9304670BD70B5054614463B
:105C80000E4600F07F00FEF7E3FE0146A2B230466A
:105C900000F048F8A1B205F07F00FFF7FBFA002002
:105CA00070BD000038B500214FF08050FFF752F969
:105CB00000214FF40000FFF74DF9FEF7EDFD4FF422
:105CC000C060FFF77FF814208DF8000001258DF8E3
:105CD00001508DF8025000248DF803406846FFF70C
:105CE00035F813208DF800008DF801508DF8024032
:105CF0008DF803406846FFF729F8084880F8144DEE
:105D0000400DFFF75FF825208DF800008DF8025058
:105D10008DF803406846FFF719F838BD0FE000E042
:105D2000FEE70000084B521C520803EB410108BF7C
:105D3000704710F8013B521E10F801CB43EA0C23C8
:105D400021F8043BF5D170470060004002E008C82C
:105D5000121F08C1002AFAD170477047002001E0E5
:105D600001C1121F002AFBD170470022491E05D332
:105D700010F8013B491E1A44D2B2F9D210467047BE
:105D80001B4910B5002209681346CC2804D02128ED
:105D900011D0202817D028E04B82164888618988C6
:105DA0000020090A052904DC134A02EBC101FFF7B0
:105DB0004BFC002010BD087800F07F00212808BFB0
:105DC0000E4A12D10AE0087800F07F00212808BFAF
:105DD0000B4A2020DFF82CC08CF800002AB18A6121
:105DE0004B8200209047002010BD022010BD000013
:105DF000E0090020615E0008F0000020655F0008F7
:105E0000815F0008A80000200149FFF71DBC0000C9
:105E1000B40000200149FFF717BC0000F00000208B
:105E200000B5054983B0D1E90021CDE900216946DB
:105E3000FFF70AFC03B000BDD0A1000806490968BD
:105E4000C978052903D9EE291CBF00207047034AF1
:105E500002EBC101FFF7F8BBE009002020010020A0
:105E6000064909688988090A0529C4BF00207047C6
:105E7000034A02EBC101FFF7E7BB0000E009002085
:105E8000F000002000290CBF00280220704700000D
:105E9000034900200968097801F07F01704700007C
:105EA000E0090020204810B50068807A012813D04E
:105EB000002808BF10BD0520FEF704FB0420FEF7F4
:105EC00001FB0520FEF7E8FA0420FFF759FDBDE8C5
:105ED00010400520FFF754BD144905200860062036
:105EE000FEF7F0FA0520FEF7EDFA0420FEF7EAFAD5
:105EF0000520FEF7D1FA0220FEF7CEFA0220FEF7C7
:105F0000E1FA0420FFF73CFD0520FFF739FD0220F0
:105F1000FFF736FD06484FF48041016149004161B9
:105F2000BDE8104002F0BABBE0090020480900209B
:105F30000010014001490420086070474809002012
:105F400010B5054C2078202818BF10BD034802F07A
:105F5000C9FB0020207010BDA8000020AC0000206C
:105F60007047000000281CBF034870470820034901
:105F70000968088200207047AC000020E00900207A
:105F800000281CBF0348704708200349096808829D
:105F900000207047AC000020E009002010B5FEF79B
:105FA00067FD0948002400688472FEF7B7FFFFF719
:105FB0003FFE07480549C0F870171221A0F8741772
:105FC0000448046010BD0000E0090020FDA00008A6
:105FD000200100204809002070B51D461646049C8B
:105FE00000F0B8FD294630461CB1BDE8704000F015
:105FF00091BCBDE8704000F05DBB704770477047D2
:1060000012010002EF020140BF3210B2120201027F
:1060100003010000584810B5006800218172C17268
:106020005649C97941720020FFF708F84FF4007112
:106030000020FFF757F910210020FFF739F9182148
:106040000020FFF7B9F858210020FFF713F90020CE
:10605000FEF74EFA4A4C002094F83010FFF7BCF8D7
:106060000020FFF7F5F801210846FFF73BF9A021D2
:106070000120FFF7A1F8E0210120FFF7FBF8402104
:106080000120FFF7A9F84FF440510120FFF7C6F8AF
:1060900020210120FFF70CF902210846FFF722F921
:1060A0000220FFF779F8E022A0210220FEF7F6FF98
:1060B000402201210220FFF70FF80220FEF7ECF941
:1060C0000220FEF7FFF90220FFF75AFC4FF440517F
:1060D0000220FFF7A3F800210220FFF7E9F84FF4B0
:1060E000C0610420FFF7FEF84FF490710420FFF721
:1060F000C1F800210420FFF791F820210420FFF7C8
:10610000D7F805210846FFF7EDF84FF4B0710520E8
:10611000FFF752F84FF490710520FFF7ABF84021DC
:106120000520FFF759F84FF440510520FFF776F8A6
:1061300020210520FFF7BCF806210846FFF7D2F81A
:106140004FF480710620FFF795F800210620FFF735
:1061500065F820210620FFF7ABF894F830100020F6
:10616000FFF73AF80020FFF773F80020FEF76EFF04
:1061700004490120086010BDE0090020E49F0008E8
:10618000BC000020480900202DE9F047DFF81C8101
:10619000D8F80400D8F804104078454F8C78C0F344
:1061A0004116FA690021A8F11000904798F8010003
:1061B0004FF00009002832D0D8F80400C51C14F0B4
:1061C000E00F07D004F0E00080281CBFA028C02802
:1061D0000AD063E07B69012229462046984788F867
:1061E0000D90C8F8109059E000227B6931490120D8
:1061F000984701227B69294610469847BA6921468B
:10620000832090472C48406800EB8000C000FEF7D8
:10621000B4FA01227B692749104698473EE0D8F836
:106220000850682014F0E00F05F8010B05F8019BF9
:1062300007D004F0E00080281CBFA028C02806D0AA
:1062400018E07B69002229462046984712E0002288
:106250007B69184901209847BA69214682209047F6
:1062600000227B6929460120984701227B69114958
:1062700010469847032E0CBF082004204419D8F874
:1062800008000621FFF771FD207016206070032EB4
:106290000CBF042000200830C8F81000FA69012162
:1062A0000648904788F80290BDE8F0870C1400205B
:1062B0004C0900207C09002094130020FC130020CE
:1062C0002DE9F843DFF8CC80092098F80010324A15
:1062D00001F060064FF0010C002E14BF0A210621C8
:1062E000D8F80430A3EB020303F1400304BF515C70
:1062F0004C1C06D0505C4FEA400000F102044FF005
:106300000D0000EB840098423AD8C8F80420244FCE
:10631000224D0020FA6A29469047002E14BF093505
:106320006D1D787810280ED01E49192008707A68E3
:1063300001209047DCB1294696B1BA680820904701
:10634000A41E083511E018494FF4C850C96961F31B
:106350000100ADF800007A68694602209047E9E73D
:10636000BA6804209047641E2D1D002CE3D1002044
:1063700088F80200C8F8100088F80D00BDE8F8831E
:1063800088F802C0D8F804004030C8F80400BDE81E
:10639000F88300000C140020080A00200A0A0020DC
:1063A0004C090020BC1300209413002070B5204C31
:1063B0000020054620732169814288BF401CFAD81D
:1063C000206968B12069402822D82269A168862006
:1063D000FFF753FC30210620FEF76AFF256170BDF0
:1063E000A16868200870607BA1684870607BA16824
:1063F00068308870A1681620C870A16804228620C1
:10640000FFF73BFCBDE8704030210620FEF750BF8F
:10641000A16840228620FFF730FC30210620FEF7DD
:1064200047FF206940382061A0684030A06070BDFF
:106430000C14002070B50220FEF7C0FA10F0400FD7
:10644000154C4FF001014FF0020008D0FEF706FA9C
:106450000220FEF7BDFAC2B26068A02107E0FEF795
:10646000FDF90220FEF7C4FAC2B26068E021FEF72F
:1064700021FDA078094D18B901F090FDFF2803D047
:10648000E07855F820008047207B012818BF70BDB8
:10649000BDE87040FFF78ABF0C140020D8A10008A7
:1064A000F8B5264E7168DFF898C088789CF801200E
:1064B000401CC008C91C102A08D1A6F178030A782C
:1064C000DB6902F00C0263F301020A700B1813F887
:1064D000012B521CD4087278002742B1012200928D
:1064E000DCF810C02246E047777337611EE0B568DC
:1064F000682205F8012B4FF0FF3205F8017B02EB13
:10650000C40205F8012B0A789F2A11D00097DCF805
:1065100010C02B462246E047B0682544E11CFFF737
:1065200024FC287016206870601D3061B770F8BDBB
:10653000DCF80C20294620469047EDE70C1400209B
:106540004C0900202DE9F84F01210C20FEF70EFD2B
:106550000220ADF800004FF010098DF803900320E1
:10656000DFF8E4A08DF8020069465046FEF7C6F950
:106570002020ADF8000069465046FEF7BFF94FF401
:106580000070DFF8C8B0ADF8000069465846FEF765
:10659000B5F90126ADF8006069465046FEF7AEF940
:1065A0003002ADF8000069465846FEF7A7F980248E
:1065B000ADF8004069465846FEF7A0F9ADF8004036
:1065C00069465046FEF79AF94025ADF800506946F5
:1065D0005046FEF793F9ADF8005069465846FEF76D
:1065E0008DF92701ADF8007069465846FEF786F927
:1065F0004FF48068ADF8008069465846FEF77EF992
:10660000ADF8009048208DF8030069465046FEF72B
:1066100075F90F490020C1F88401C1F894010D4AB1
:10662000C2F8A401C1F88061C2F8A0610A48046000
:106630000A480460001D0560094805600760C0F84D
:106640000080BDE8F88F000000080140000C014008
:106650000000214200802142100C0140100801403E
:10666000140C014070B51D461646049C00F0FEFA5D
:10667000294630461CB1BDE8704000F0F1B9BDE8D4
:10668000704000F0AFB8000070B5084D0020C5F8AC
:106690008401074C05F5C2752068FEF76EF80120ED
:1066A00028602068BDE87040FEF767B8000021420E
:1066B000980900202DE9F84F454E4FF000080C4690
:1066C0000546C6F89481C6F884810127C6F884710E
:1066D000C6F89471C6F88481C6F88471C6F89471BE
:1066E000C6F88481C6F88471C6F89471C6F88481AE
:1066F000C6F88471C6F89471C6F88481C6F88471AE
:1067000034484FF08009C0F800904FF0200AADF8EF
:1067100000A048208DF803004FF0030B8DF802B065
:1067200069462D48FEF7EAF80022C6F88481C6F8CB
:1067300084711346002D88BF28491AD94FF0080CE0
:10674000C6F88481C6F884710868520810F0200FDA
:1067500018BF42F08002ACF1010010F0FF0CEFD145
:1067600004F8012B581C0022C3B2AB42E6D3042B21
:106770000CD20820C6F88481C6F88471401E10F03F
:10678000FF00F7D1581CC3B2042BF2D3C6F88481A2
:10679000C6F88471C6F88481C6F884711048C0F8C0
:1067A0000090ADF800A010208DF803008DF802B025
:1067B00069460948FEF7A2F8C6F89471C6F88481C4
:1067C000C6F88471C6F88481C6F88471BDE8F88F74
:1067D000000021421408014000080140080801405F
:1067E000100801402DE9F84FDFF8108182460020A3
:1067F0000F46C8F89401FFF747FF4FF0010BC8F8A8
:1068000094B1FFF741FFC8F894B1FFF73DFFC8F816
:1068100094B1FFF739FFC8F894B1FFF735FF384955
:10682000802008602020ADF8000048208DF803008B
:1068300003208DF8020069463248FEF75FF8002415
:10684000FFF722FF0025DFF8C090BAF1000F22D930
:1068500008260020C8F88401D9F80000FDF78DFF54
:10686000C8F884B1D9F80000FDF787FF274864080D
:10687000006810F0200F18BF44F08004701E10F064
:10688000FF06E6D107F8014B681C0024C5B2554548
:10689000DED3042D15D200260824C8F88461D9F867
:1068A0000000FDF76AFFC8F884B1D9F80000FDF7D1
:1068B00064FF601E10F0FF04EFD1681CC5B2042D08
:1068C000EAD3FFF7E1FEFFF7DFFE11498020086001
:1068D0002020ADF8000010208DF8030003208DF873
:1068E000020069460748FEF709F8C8F894B1FFF7B7
:1068F000CBFEBDE8F84FFFF7C7BE00000000214205
:1069000014080140000801409809002008080140CF
:1069100010080140F0B4514A0024C2F89441C2F872
:1069200084414FF0010CC2F884C1C2F89441C2F80E
:106930008441C2F884C1C2F894C1C2F88441C2F84B
:1069400084C1C2F894C1C2F88441C2F884C1C2F8BB
:1069500094C1C2F88441C2F884C100252B460028A6
:106960004DD911F8016B06F001077540C2F894711A
:106970007608C2F88441C2F884C106F00107C2F863
:1069800094717608C2F88441C2F884C106F0010708
:10699000C2F894717608C2F88441C2F884C106F046
:1069A0000107C2F894717608C2F88441C2F884C124
:1069B00006F00107C2F894717608C2F88441C2F863
:1069C00084C106F00107C2F894717608C2F88441C8
:1069D000C2F884C106F00107C2F894717608C2F8C3
:1069E0008441C2F884C1C2F89461C2F88441C2F8FB
:1069F00084C15B1CDBB28342B3D3042B0ED20820CC
:106A0000C2F89441C2F88441C2F884C1401E10F01B
:106A1000FF00F5D1581CC3B2042BF0D385EA151042
:106A200080EA900080EA5000401CC0B2C2F8940195
:106A3000C2F88441C2F884C1C2F894C1C2F884414A
:106A4000C2F884C1C2F894C1C2F88441C2F884C1BA
:106A5000C2F88441C2F884C1F0BC704700002142F2
:106A60002DE9F05F394F002488468346C7F89441EA
:106A7000FFF70AFEC7F89441FFF706FE0124C7F8A6
:106A80009441FFF701FEC7F89441FFF7FDFDC7F8F9
:106A90009441FFF7F9FD4FF0000ADFF8B490554636
:106AA000BBF1000F1FD918F8014B08268AEA040A27
:106AB000C7F8944164080020C7F88401D9F80000A1
:106AC000FDF75BFE0120C7F88401D9F80000FDF74F
:106AD00054FE701E10F0FF06EAD1681CC5B25D4579
:106AE000E1D3042D19D200264FF001080824C7F87D
:106AF0009461C7F88461D9F80000FDF73EFEC7F83D
:106B00008481D9F80000FDF738FE601E10F0FF0404
:106B1000EDD1681CC5B2042DE8D38AEA1A1080EAC8
:106B2000900080EA5000401CC0B2C7F89401FFF703
:106B3000ABFD0124C7F89441FFF7A6FDC7F89441C7
:106B4000FFF7A2FDBDE8F05FFFF79EBD0000214208
:106B500098090020444810B40023C0F89431C0F8CC
:106B600084310122C0F88421C0F89431C0F8843106
:106B7000C0F88421C0F89431C0F88431C0F8842171
:106B8000C0F89421C0F88431C0F88421C0F8942161
:106B9000C0F88431C0F88421097881EA111C8CEA9C
:106BA0009C0C01F001048CEA5C0CC0F8944149088B
:106BB000C0F88431C0F8842101F00104C0F8944188
:106BC0004908C0F88431C0F8842101F00104C0F8FC
:106BD00094414908C0F88431C0F8842101F00104CF
:106BE000C0F894414908C0F88431C0F8842101F00C
:106BF0000104C0F894414908C0F88431C0F88421E8
:106C000001F00104C0F894414908C0F88431C0F88B
:106C1000842101F00104C0F894414908C0F884318E
:106C2000C0F88421C0F89411C0F88431C0F88421E0
:106C30000CF10101C9B2C0F89411C0F88431C0F858
:106C40008421C0F89421C0F88431C0F88421C0F8B0
:106C50009421C0F88431C0F88421C0F88431C0F890
:106C6000842110BC70470000000021422DE9F04152
:106C70001C4E00240D46C6F89441FFF705FDC6F8EA
:106C80009441FFF701FDC6F89441FFF7FDFC4FF07A
:106C90000108C6F89481FFF7F7FCC6F89481FFF766
:106CA000F3FC2C78082584EA141080EA900080EA2E
:106CB0005007C6F894416408FFF7E6FC6D1EF8D152
:106CC000781CC0B2C6F89401FFF7DEFCC6F89481C8
:106CD000FFF7DAFCC6F89481FFF7D6FCBDE8F04177
:106CE000FFF7D2BC0000214270B51D461646049C39
:106CF00000F0FAF9294630461CB1BDE8704000F0BA
:106D0000EFB8BDE8704000F029B870B51D461646D2
:106D1000049C00F0BBFA294630461CB1BDE8704027
:106D200000F0A4B9BDE8704000F092B870B500BFA3
:106D300000BF0020074DC5F88401074C05F5C2755A
:106D40002068FDF71AFD012028602068BDE870402A
:106D5000FDF713BD0000214298090020F0B43A4C21
:106D60000027C4F8947100BF00BFC4F8847100BF4D
:106D700000BF0125C4F8845100BF00BFC4F894517E
:106D800000BF00BFC4F8847100BF00BFC4F88451C5
:106D900000BF00BFC4F8947100BF00BFC4F8847185
:106DA00000BF00BFC4F8845100BF00BFC4F8947195
:106DB00000BF00BFC4F8847100BF00BFC4F8845195
:106DC00000BF00BF421ED3B228BF204E21D30020F7
:106DD00008224008002B04BF012AC4F8945100BFC8
:106DE00000BFC4F8847100BF00BFC4F8845100BF65
:106DF00000BFD6F800C01CF0100F18BF40F0800094
:106E0000521E12F0FF02E4D15A1E01F8010BD3B258
:106E1000DDD2C4F8945100BF00BFC4F8847100BF34
:106E200000BFC4F8845100BF00BFC4F8947100BF14
:106E300000BFC4F8847100BF00BFC4F8845100BF14
:106E400000BFF0BC7047000000002142080801406C
:106E50002DE9F05FDFF880804FF0000B0F4604460D
:106E6000C8F894B1FFF762FF4FF00109C8F8949198
:106E7000FFF75CFFC8F894B1FFF758FFC8F894B16A
:106E8000FFF754FF601EC6B228BFDFF850A019D329
:106E9000002408256408002E04BF012DC8F8949131
:106EA000FFF744FFDAF8000010F0100F18BF44F0AD
:106EB0008004681E10F0FF05ECD1711E07F8014B2D
:106EC000CEB2E5D2C8F89491FFF730FFC8F894B17C
:106ED000BDE8F05FFFF72ABF00002142080801402B
:106EE000604A30B44FF0000CC2F894C100BF00BF3C
:106EF000C2F884C100BF00BF0124C2F8844100BFB2
:106F000000BFC2F8944100BF00BFC2F884C100BFF7
:106F100000BFC2F8844100BF00BFC2F894C100BFE7
:106F200000BFC2F884C100BF00BFC2F8844100BFE7
:106F300000BFC2F894C1431EDBB228BF4A486BD3DE
:106F400011F8015B00BF00BFC2F884C100BF00BFE1
:106F5000C2F8844100BF00BFC0F8A4516D0800BF53
:106F600000BFC2F884C100BF00BFC2F8844100BFA7
:106F700000BFC0F8A4516D0800BF00BFC2F884C1B3
:106F800000BF00BFC2F8844100BF00BFC0F8A451D9
:106F90006D0800BF00BFC2F884C100BF00BFC2F8C7
:106FA000844100BF00BFC0F8A4516D0800BF00BFFE
:106FB000C2F884C100BF00BFC2F8844100BF00BF57
:106FC000C0F8A4516D0800BF00BFC2F884C100BF63
:106FD00000BFC2F8844100BF00BFC0F8A4516D08D3
:106FE00000BF00BFC2F884C100BF00BFC2F8844127
:106FF00000BF00BFC0F8A4516D0800BF00BFC2F8B9
:1070000084C100BF00BFC2F8844100BF00BFC0F808
:10701000A4515B1EDBB293D2C2F8944100BF00BF03
:10702000C2F884C100BF00BFC2F8844100BF00BFE6
:10703000C2F8944100BF00BFC2F884C100BF00BFC6
:10704000C2F8844100BF00BFC2F894C100BF00BFB6
:10705000C2F884C100BF00BFC2F8844100BF00BFB6
:1070600030BC704700002142008021422DE9F05FD2
:10707000DFF86C904FF0000A0F460446C9F894A15F
:10708000FFF754FE4FF0010BC9F894B1FFF74EFE25
:10709000C9F894A1FFF74AFEC9F894A1601EC6B2D0
:1070A00028BFDFF840800CD317F8015B0824FFF7F6
:1070B0003DFEC8F8A4516D08641EF8D1711ECEB211
:1070C000F2D2C9F894B1FFF731FEC9F894B1FFF7D5
:1070D0002DFEC9F894A1BDE8F05FFFF727BE0000C0
:1070E0000000214200802142664A30B44FF0000C7B
:1070F000C2F894C100BF00BFC2F884C100BF00BF86
:107100000124C2F8844100BF00BFC2F8944100BF0F
:1071100000BFC2F884C100BF00BFC2F8844100BFF5
:1071200000BFC2F8944100BF00BFC2F884C100BFD5
:1071300000BFC2F8844100BF00BFC2F894C100BFC5
:1071400000BFC2F884C100BF00BFC2F8844100BFC5
:1071500000BFC2F894C1431EDBB228BF4A486BD3BC
:1071600011F8015B00BF00BFC2F884C100BF00BFBF
:10717000C2F8844100BF00BFC0F8A4516D0800BF31
:1071800000BFC2F884C100BF00BFC2F8844100BF85
:1071900000BFC0F8A4516D0800BF00BFC2F884C191
:1071A00000BF00BFC2F8844100BF00BFC0F8A451B7
:1071B0006D0800BF00BFC2F884C100BF00BFC2F8A5
:1071C000844100BF00BFC0F8A4516D0800BF00BFDC
:1071D000C2F884C100BF00BFC2F8844100BF00BF35
:1071E000C0F8A4516D0800BF00BFC2F884C100BF41
:1071F00000BFC2F8844100BF00BFC0F8A4516D08B1
:1072000000BF00BFC2F884C100BF00BFC2F8844104
:1072100000BF00BFC0F8A4516D0800BF00BFC2F896
:1072200084C100BF00BFC2F8844100BF00BFC0F8E6
:10723000A4515B1EDBB293D2C2F8944100BF00BFE1
:10724000C2F884C100BF00BFC2F8844100BF00BFC4
:10725000C2F8944100BF00BFC2F884C100BF00BFA4
:10726000C2F8844100BF00BFC2F894C100BF00BF94
:10727000C2F884C100BF00BFC2F8844100BF00BF94
:1072800030BC704700002142008021422DE9F05FB0
:10729000DFF874904FF0000B0F460446C9F894B124
:1072A000FFF744FD4FF0010AC9F894A1FFF73EFD36
:1072B000C9F894A1FFF73AFDC9F894B1FFF736FD7C
:1072C000C9F894B1601EC6B228BFDFF840800CD365
:1072D00017F8015B0824FFF729FDC8F8A4516D08D1
:1072E000641EF8D1711ECEB2F2D2C9F894A1FFF794
:1072F0001DFDC9F894A1FFF719FDC9F894B1BDE8C7
:10730000F05FFFF713BD0000000021420080214222
:1073100070B51E46DDE90454002818BF002903D0CB
:10732000002A18BF00F0D6FA002E1ABF002D002C3C
:1073300070BD224629463046BDE8704000F018B8BE
:1073400070B51E46DDE90454002818BF002903D09B
:10735000002A18BF00F056FC002E1ABF002D002C8A
:1073600070BD224629463046BDE8704000F08EB917
:10737000002808BF70472DE9F007C14DC30800265B
:1073800000F0070AC5F8946100BF00BFC5F884612A
:1073900000BF00BF4FF00109C5F8849100BF00BFD6
:1073A000C5F8949100BF00BFC5F8846100BF00BF5D
:1073B000C5F8849100BF00BFC5F8946100BF00BF4D
:1073C000C5F8846100BF00BFC5F8849100BF00BF4D
:1073D000C5F8946100BF00BFC5F8846100BF00BF5D
:1073E000C5F8849100BF00BF581EA64FDFF89882F1
:1073F000C0B2C0F0F98011F8013B00BF00BFC5F872
:10740000846100BF00BFC5F8849100BF00BF03F0D6
:10741000010CC7F8A4C192F800C04FEA5C041470D4
:10742000D8F800C01CF0100C18BF4FF0800C44EAD4
:107430000C0C82F800C05B0800BF00BFC5F8846177
:1074400000BF00BFC5F8849100BF00BF03F0010C6E
:10745000C7F8A4C192F800C04FEA5C041470D8F8D1
:1074600000C01CF0100C18BF4FF0800C44EA0C0C4C
:1074700082F800C05B0800BF00BFC5F8846100BF90
:1074800000BFC5F8849100BF00BF03F0010CC7F82E
:10749000A4C192F800C04FEA5C041470D8F800C090
:1074A0001CF0100C18BF4FF0800C44EA0C0C82F852
:1074B00000C05B0800BF00BFC5F8846100BF00BF0B
:1074C000C5F8849100BF00BF03F0010CC7F8A4C148
:1074D00092F800C04FEA5C041470D8F800C01CF0A9
:1074E000100C18BF4FF0800C44EA0C0C82F800C05E
:1074F0005B0800BF00BFC5F8846100BF00BFC5F8CE
:10750000849100BF00BF03F0010CC7F8A4C192F83A
:1075100000C04FEA5C041470D8F800C01CF0100CD6
:1075200018BF4FF0800C44EA0C0C82F800C05B08D6
:1075300000BF00BFC5F8846100BF00BFC5F88491DB
:1075400000BF00BF03F0010CC7F8A4C192F800C04F
:107550004FEA5C041470D8F800C01CF0100C18BF7F
:107560004FF0800C44EA0C0C82F800C05B0800BFAE
:1075700000BFC5F8846100BF00BFC5F8849100BF9B
:1075800000BF03F0010CC7F8A4C192F800C04FEA95
:107590005C041470D8F800C01CF0100C18BF4FF039
:1075A000800C44EA0C0C82F800C05B0800BF00BFEE
:1075B000C5F8846100BF00BFC5F8849100BF00BF5B
:1075C000C7F8A43113785B081370D8F800C01CF01A
:1075D000100C18BF4FF0800C43EA0C03401E02F859
:1075E000013BC0B2BFF407AF0878BAF10101C9B2DC
:1075F0001ED300BF00BFC5F8846100BF00BFC5F83F
:10760000849100BF00BF00F00103C7F8A4311378D4
:107610005B081370D8F800C01CF0100C18BF4FF0B6
:10762000800C43EA0C034008491E1370C9B2E0D233
:10763000C5F8949100BF00BFC5F8846100BF00BFCA
:10764000C5F8849100BF00BFC5F8949100BF00BF8A
:10765000C5F8846100BF00BFC5F8849100BF00BFBA
:10766000C5F8946100BF00BFC5F8846100BF00BFCA
:10767000C5F8849100BF00BFBDE8F0077047000067
:10768000000021420080214208080140002808BF74
:1076900070472DE9F05F0D46DFF82CB2C10800F00D
:1076A000070A00201446CBF8940100BF00BFCBF8B6
:1076B000840100BF00BF0122CBF8842100BF00BFBE
:1076C000CBF8942100BF00BFCBF8840100BF00BFFE
:1076D000CBF8842100BF00BFCBF8940100BF00BFEE
:1076E000CBF8840100BF00BFCBF8842100BF00BFEE
:1076F000CBF8940100BF00BFCBF8840100BF00BFEE
:10770000CBF8842100BF00BF481EDFF8C081DFF83E
:10771000C091C6B27ED315F8017BFFF707FB07F0D7
:107720000100C8F8A401207840082070D9F80010A2
:1077300011F0100118BF8021084320707F08FFF767
:10774000F5FA07F00100C8F8A4012078400820707D
:10775000D9F8001011F0100118BF802108432070E3
:107760007F08FFF7E3FA07F00100C8F8A4012078CA
:1077700040082070D9F8001011F0100118BF8021C6
:10778000084320707F08FFF7D1FA07F00100C8F81E
:10779000A401207840082070D9F8001011F01001E1
:1077A00018BF8021084320707F08FFF7BFFA07F059
:1077B0000100C8F8A401207840082070D9F8001012
:1077C00011F0100118BF8021084320707F08FFF7D7
:1077D000ADFA07F00100C8F8A40120784008207035
:1077E000D9F8001011F0100118BF80210843207053
:1077F0007F08FFF79BFA07F00100C8F8A401207882
:1078000040082070D9F8001011F0100118BF802135
:10781000084300E015E020707F08FFF787FAC8F8FA
:10782000A471207840082070D9F8001011F01001E0
:1078300018BF80210843711E04F8010BCEB2BFF4BB
:107840006AAF2D78BAF10100C6B214D3FFF76EFA11
:1078500005F00100C8F8A401207840082070D9F88C
:10786000001011F0100118BF802108436D08711E2F
:107870002070CEB2EAD20120CBF8940100BF00BF45
:107880000021CBF8841100BF00BFCBF8840100BFFA
:1078900000BFCBF8940100BF00BFCBF8841100BF3C
:1078A00000BFCBF8840100BF00BFCBF8941100BF2C
:1078B00000BFCBF8841100BF00BFCBF8840100BF2C
:1078C00000BFBDE8F09F000000002142008021427F
:1078D00008080140002808BF70472DE9F007C64D91
:1078E000C308002600F0070AC5F8946100BF00BF76
:1078F000C5F8846100BF00BF4FF00109C5F884914D
:1079000000BF00BFC5F8949100BF00BFC5F88461F7
:1079100000BF00BFC5F8849100BF00BFC5F89491B7
:1079200000BF00BFC5F8846100BF00BFC5F88491E7
:1079300000BF00BFC5F8946100BF00BFC5F88461F7
:1079400000BF00BFC5F8849100BF00BFC5F89461B7
:1079500000BF00BFC5F8846100BF00BFC5F88491B7
:1079600000BF00BF581EA54FDFF89482C0B2C0F020
:10797000F88011F8013B00BF00BFC5F8846100BF6B
:1079800000BFC5F8849100BF00BF03F0010CC7F829
:10799000A4C192F800C04FEA5C041470D8F800C08B
:1079A0001CF0100C18BF4FF0800C44EA0C0C82F84D
:1079B00000C05B0800BF00BFC5F8846100BF00BF06
:1079C000C5F8849100BF00BF03F0010CC7F8A4C143
:1079D00092F800C04FEA5C041470D8F800C01CF0A4
:1079E000100C18BF4FF0800C44EA0C0C82F800C059
:1079F0005B0800BF00BFC5F8846100BF00BFC5F8C9
:107A0000849100BF00BF03F0010CC7F8A4C192F835
:107A100000C04FEA5C041470D8F800C01CF0100CD1
:107A200018BF4FF0800C44EA0C0C82F800C05B08D1
:107A300000BF00BFC5F8846100BF00BFC5F88491D6
:107A400000BF00BF03F0010CC7F8A4C192F800C04A
:107A50004FEA5C041470D8F800C01CF0100C18BF7A
:107A60004FF0800C44EA0C0C82F800C05B0800BFA9
:107A700000BFC5F8846100BF00BFC5F8849100BF96
:107A800000BF03F0010CC7F8A4C192F800C04FEA90
:107A90005C041470D8F800C01CF0100C18BF4FF034
:107AA000800C44EA0C0C82F800C05B0800BF00BFE9
:107AB000C5F8846100BF00BFC5F8849100BF00BF56
:107AC00003F0010CC7F8A4C192F800C04FEA5C04AF
:107AD0001470D8F800C01CF0100C18BF4FF0800CC8
:107AE00044EA0C0C82F800C05B0800BF00BFC5F878
:107AF000846100BF00BFC5F8849100BF00BF03F0E0
:107B0000010CC7F8A4C192F800C04FEA5C041470DD
:107B1000D8F800C01CF0100C18BF4FF0800C44EADD
:107B20000C0C82F800C05B0800BF00BFC5F8846180
:107B300000BF00BFC5F8849100BF00BFC7F8A431E3
:107B400013785B081370D8F800C01CF0100C18BF35
:107B50004FF0800C43EA0C03401E1370C0B2BFF418
:107B600008AF0878BAF10101C9B21ED300BF00BF47
:107B7000C5F8846100BF00BFC5F8849100BF00BF95
:107B800000F00103C7F8A43113785B081370D8F82C
:107B900000C01CF0100C18BF4FF0800C43EA0C031F
:107BA0004008491E1370C9B2E0D2C5F8949100BFD5
:107BB00000BFC5F8846100BF00BFC5F8849100BF55
:107BC00000BFC5F8949100BF00BFC5F8846100BF35
:107BD00000BFC5F8849100BF00BFC5F8946100BF25
:107BE00000BFC5F8846100BF00BFC5F8849100BF25
:107BF00000BFBDE8F007704700002142008021422D
:107C000008080140002808BF70472DE9F05F1446BE
:107C1000DFF844B2C20800F0070A00200D46CBF896
:107C2000940100BF00BFCBF8840100BF00BF012159
:107C3000CBF8841100BF00BFCBF8941100BF00BF88
:107C4000CBF8840100BF00BFCBF8841100BF00BF98
:107C5000CBF8941100BF00BFCBF8840100BF00BF78
:107C6000CBF8841100BF00BFCBF8940100BF00BF68
:107C7000CBF8840100BF00BFCBF8841100BF00BF68
:107C8000CBF8940100BF00BFCBF8840100BF00BF58
:107C9000CBF8841100BF00BF501EDFF8C081DFF8B1
:107CA000C091C6B27ED315F8017BFFF73FF807F00D
:107CB0000100C8F8A401207840082070D9F800100D
:107CC00011F0100118BF8021084320707F08FFF7D2
:107CD0002DF807F00100C8F8A401207840082070B2
:107CE000D9F8001011F0100118BF8021084320704E
:107CF0007F08FFF71BF807F00100C8F8A4012078FF
:107D000040082070D9F8001011F0100118BF802130
:107D1000084320707F08FFF709F807F00100C8F852
:107D2000A401207840082070D9F8001011F010014B
:107D300018BF8021084320707F08FEF7F7FF07F087
:107D40000100C8F8A401207840082070D9F800107C
:107D500011F0100118BF8021084320707F08FEF742
:107D6000E5FF07F00100C8F8A40120784008207062
:107D7000D9F8001011F0100118BF802108432070BD
:107D80007F08FEF7D3FF07F00100C8F8A4012078B0
:107D900040082070D9F8001011F0100118BF8021A0
:107DA000084300E015E020707F08FEF7BFFFC8F829
:107DB000A471207840082070D9F8001011F010014B
:107DC00018BF80210843711E04F8010BCEB2BFF426
:107DD0006AAF2D78BAF10100C6B214D3FEF7A6FF40
:107DE00005F00100C8F8A401207840082070D9F8F7
:107DF000001011F0100118BF802108436D08711E9A
:107E00002070CEB2EAD20120CBF8940100BF00BFAF
:107E10000021CBF8841100BF00BFCBF8840100BF64
:107E200000BFCBF8940100BF00BFCBF8841100BFA6
:107E300000BFCBF8840100BF00BFCBF8941100BF96
:107E400000BFCBF8841100BF00BFCBF8840100BF96
:107E500000BFBDE8F09F00000000214200802142E9
:107E600008080140F8B5254D2878C0F3411C287852
:107E7000002400F01000002814BF0A2606266868B7
:107E800010D000F102074FF0000001464FF007024A
:107E90004FEA0121BB5C41EA106143EA0020521E17
:107EA000F6D505E04179D0F8020061F31F60214664
:107EB0006A68925DAE68531C682206F8012B5A1E50
:107EC00006F8014B274606F8012BCDF800C0DFF875
:107ED00030C03246DCF824C0E0478419A868201A74
:107EE00028612969A868FDF740FF2070162060709E
:107EF0002869801C2861AF70F8BD00000C140020B8
:107F00004C090020F8B5224C2078C0F3411C2078A1
:107F100000F01000002815BF0A2106210D220922B9
:107F200063681C4DA3EB0503695C03F1400301F199
:107F300001011144994224D86560AA1C002560B152
:107F40000020014607230902D65C41EA106146EA97
:107F500000205B1EF7D5083205E0D17852F8040BFB
:107F600061F31F60294612F8013BCDF800C0DFF82D
:107F700028C05B1CDCF828C0E047A570256165734C
:107F8000F8BD0120A070606840306060F8BD00005E
:107F90000C140020080A00204C0900202DE9F041B3
:107FA000524C6068007868281CBFFF20BDE8F08153
:107FB000606800270126407800F07F00252842D025
:107FC00019DC062841D005DC35D2DFE800F0363672
:107FD00038383A3C142834D008DC072835D0082833
:107FE00008BF062034D00C2831D024E015282AD030
:107FF000242826D01FE0622821D00EDC452822D07C
:1080000006DC34281DD035281DD0442819D012E0B4
:10801000542816D0552816D00DE06C2817D006DC51
:1080200063280CD064280CD065280CD003E0742899
:1080300007D0752807D0FF200AE0E77009E0E67056
:1080400007E0022004E0032002E0042000E0052015
:10805000E070E078FF2812D06068407820702078C7
:1080600026EA00006070207810F0800F29D1607837
:10807000002818BF002024D020731D48A060E0789D
:108080001C4D2978884208BFEF702BD0E07828700B
:10809000A87870B101226B691749104698470122F0
:1080A0006B69164902209847EA69012114489047F4
:1080B000AF70EE70E07802281CBFE078032811D181
:1080C00001E00120D8E7EA6900210D48904700222D
:1080D0006B6909490120984700226B690749022012
:1080E0009847AE70E078BDE8F08100000C140020E5
:1080F000281200204C0900207C090020840900205F
:10810000FC1300202DE9F04F87B00024DFF8B48085
:108110000294039404940594D8F804102646A146CA
:108120008F78D8F808506820C91C05F8010B002F7B
:1081300005F8014B05F8017B27DB11F8010BC21D87
:1081400001EBD20A1AF801BB0BF10702D4081E4A50
:10815000D2F820C0BCF1000F2BD002AACDE900A2BA
:108160005B4604AAE04705F801BB224602A928465F
:10817000FBF7E8FF25440AEB04010023A342B8BF44
:108180005B1CFBDB761CBE42D7DDD8F80800E11C87
:10819000FDF7EBFD05F8010B162005F8010BD8F8EB
:1081A0000800281AC8F8100088F8029007B0BDE847
:1081B000F08F012088F80D00C8F8109007B0BDE8D6
:1081C000F08F00000C1400204C09002070B51E4DEB
:1081D00069686A7888780026A5F17803C91CD2B14D
:1081E0000A7891F801C00A2842EA0C2291F802C0EC
:1081F000C97842EA0C4242EA016124BF0120687357
:108200001FD243F820106E732E61002814BF04287B
:1082100000F01CF815E053F82000AC680821296133
:10822000682121706670A070010AE170010C217153
:10823000000E6071A8680621FDF797FDA071162059
:10824000E071AE7070BD00000C1400202DE9F04705
:10825000DFF87083D8F80000DC4D00F07041DA4898
:10826000B1F1C04F44D0D8F8001001F07041B1F125
:10827000A04F47D0D8F80000D64900F07042D4484B
:10828000B2F1804F4AD0D8F8002002F07043D24AB1
:10829000B3F1405F4DD0D8F8003003F07043B3F134
:1082A000005F50D0D8F8003003F07043B3F1805F26
:1082B00053D0CA4B6B61CA4BAB61CA4BEB61EA62EC
:1082C000C5E90901D8F80000C74B10F0706FC74A24
:1082D000C74ED8F800004FF02A014FF0010746D0F2
:1082E00000F07060B0F1807F00F09C8000F0F0B88A
:1082F000C0496961C049A961C049E961C049696271
:10830000C04908E0C0496961C049A961C049E96143
:10831000C0496962C049C5E90A10D3E7BF4A6A612A
:10832000BF4AAA61BF4AEA61C5E90901BE48E862DD
:10833000C8E7BE4B6B61BE4BAB61BE4BEB61EA6203
:10834000C5E90901BEE7BC4B6B61BC4BAB61BC4BE3
:10835000EB61EA62C5E90901B4E7BA4B6B61BA4B5C
:10836000AB61BA4BEB61EA62C5E90901AAE7D8F84B
:1083700000C0C0B20CF47F0C40EA1C202A2831D384
:10838000DFF8CCC2C5F804C02A38DFF8C8C2A3FBA6
:108390000030C5F808C0DFF8C0C2C5F80CC0DFF86F
:1083A000BCC2C5F810C0DFF8B8C2C008C5F820C00C
:1083B000106000EB400001EB8000D8F8001001F0E5
:1083C000FF21C8F80010D8F8001000F47F4241EAFD
:1083D0000221C8F80010D8F80010C0B20843C8F84D
:1083E000000016E0D8F8000000F0FF20C8F80000F8
:1083F000D8F8000040F01200C8F800009948686002
:108400009948A8609948E860994828619948286285
:1084100017600024C6F89471FEF788FC641C5A2C7F
:10842000F8D355E0D8F80000D8F800C0C0B20CF47A
:108430007F0C40EA1C202A282DD32A38DFF838C2C6
:10844000A3FB0030C5F804C0DFF830C2C5F808C08F
:10845000DFF82CC2C5F80CC0DFF828C2C008C5F888
:1084600010C0106000EB400001EB8000D8F8001055
:1084700001F0FF21C8F80010D8F8001000F47F4286
:1084800041EA0221C8F80010D8F80010C0B2084331
:10849000C8F8000014E0D8F8000000F0FF20C8F889
:1084A0000000D8F8000040F01200C8F8000076483C
:1084B00068607648A8607648E8607648286117606A
:1084C0000024C6F89471FEF731FC641C5A2CF8D3D2
:1084D000D8F800004FF440716F4C31EA00004FF0C3
:1084E00000090ED0D8F8000000F44070B0F5807F8D
:1084F00031D0D8F8000000F44070B0F5007F33D0E0
:108500003AE0C6F88091C4F8A091D8F80800D8F8ED
:108510000C1088420FD9D8F80C00FCF737F9C6F8D0
:108520008071D8F80800D8F80C10401AFCF72EF922
:10853000C4F8A07120E0D8F80800FCF727F9C4F8C7
:10854000A071D8F80C00D8F80810401AFCF71EF9F2
:10855000C6F8807110E0C4F8A091D8F80800FCF7C4
:1085600015F9C4F8A07107E0C6F88091D8F80C009E
:10857000FCF70CF9C6F88071D8F8000010F4806F91
:1085800018BF00240ED0C6F89471C6F8849102205A
:10859000FCF7F3F8C6F884710220FCF7EEF8641CCF
:1085A000642CF0D3D8F8000010F4805F14BF1020C2
:1085B00008206870D8F8000020F4E060C8F80000D7
:1085C000BDE8F08794130020459B00084C0900206B
:1085D000FD950008A9970008899A0008198D0008E0
:1085E00045940008459A0008ABAAAAAA9809002059
:1085F000000021423D940008FF5F0008879A0008B0
:10860000E59600086D99000849930008FD5F000891
:10861000859A0008E19600088D98000839920008B4
:10862000B9950008839A0008FD9A0008599100083E
:1086300089950008819A0008298F0008F1940008A4
:108640007F9A0008398E0008B19400087D9A0008CE
:108650008D7200086D700008516E00080B6D0008E7
:1086600011730008E9700008E16E00085D6D0008F4
:10867000E96C0008417300086D6C0008616A00082D
:10868000E567000865660008556B00081569000875
:10869000B5660008D95F00080080214210B5FDF7DB
:1086A00051FF0C480021017041708170C1700A4A6D
:1086B00042600A4A826001730161783808490160AA
:1086C000642141604FF47A71C1608160BDE810405F
:1086D000FFF7BCBD0C140020080A0020281200205F
:1086E0000300002130B589B004466846FDF736FA2C
:1086F000207900214FF4E135002808BFADF80610BD
:108700000BD0012808BF4FF4405004D0022808BF06
:108710004FF4005016D1ADF806006079002808BF6C
:10872000ADF808100BD0012808BF4FF4806004D0CA
:10873000022808BF4FF4C06004D1ADF80800A0794A
:10874000082809D004A8FDF709FA04A8049501F047
:10875000F3FB09B0002030BDBDF8080000281ABFA7
:108760004FF48050ADF80400ADF80410206800907C
:108770000C20ADF80A00ADF80C10684601F0DCFBE7
:10878000044903484860886009B0012030BD0000FA
:10879000C0140020A809002000B585B06846FDF788
:1087A000DDF94FF4E1300090684601F0C5FB05B0FB
:1087B00000BD000010B50748FDF7C8F9064A51682A
:1087C00001F8010B05485160814204BF0448506024
:1087D00010BD000000440040A80900203F15002003
:1087E000C014002070B5144DD5E90101884208BFBE
:1087F00070BD2A68531C2B60B2F57A7FD8BF70BD5C
:1088000000220E4E2A6088423CBF701A00F180049C
:1088100002D372B6441A62B622468520FDF72DFABD
:1088200030210520FCF744FDA86805492044A860D4
:10883000884288BFAE6070BDA8090020C014002027
:108840003F15002070B504464D1E28BF084E0CD3BE
:1088500014F8011B3046FDF77DF940213046FDF745
:10886000DAF80028F9D06D1EF2D2284670BD00005B
:108870000044004070B50A4E002406EB0415286839
:10888000B0F1FF3F08D0A86808B1804720B1E9687F
:1088900000291CBF68688847641C0A2CEDDB70BD8A
:1088A000201400200249C96961F3010070470000EB
:1088B0009413002001F01F010D283ED2DFE800F0E4
:1088C0003D070C151E3D3D25292D3135390041EA66
:1088D0000110107012200FE0012040EA011010700A
:1088E000102040EA111050707047012040EA01103A
:1088F0001070182040EA111050707047481E012176
:1089000041EA001010702020F6E701201070A2202C
:10891000F2E701201070C220EEE7012010708220E3
:10892000EAE701201070B220E6E701201070D220A3
:10893000E2E7012010709220DEE700201070DBE7F4
:1089400001F01F010D283AD2DFE800F0392839394B
:108950001539391C2024100C070084201070582071
:108960005070704784201070542002E084201070F2
:10897000502050707047481E402141EA400010705E
:108980002020F6E7842010704020F2E78420107049
:108990004420EEE7842010704820EAE73C2000EAFB
:1089A0008100022340EA811003EAD103184340EA20
:1089B00011101070C1F3810040F01C00D9E70020B5
:1089C0001070D6E701F01F010D2830D2DFE800F06B
:1089D0002F252F2F152F2F191D21100C0700402098
:1089E0001070B1205070704740201070A92002E034
:1089F00040201070A12050707047481E1070212038
:108A0000F9E7402010708120F5E7402010708920A0
:108A1000F1E7402010709120EDE7880140EA8100E5
:108A200040F0030010706C2040EA9100E3E7002062
:108A30001070E0E701F01F030D2872D2DFE800F0AC
:108A400082070F2C4B8282535A626A727A0043F07B
:108A500020001070482050709370C42039E001F05D
:108A6000E000A0280BD0C0284FF0210010704FF07C
:108A70006000507018BF937009D0C02029E02120F9
:108A800010706020507043F020009070F5E743F0C4
:108A9000E0009070C1201CE001F0E000A0280CD0A4
:108AA000C02843F0200010704FF0640050700DD0CB
:108AB00001209070C020D070704743F020001070EB
:108AC0006420507021209070C02002E0E12090705E
:108AD000C120D0707047581E1070002050702120A7
:108AE0009070A020F5E70020107050704120907029
:108AF000D820EEE7002010701020507041209070B8
:108B0000D820E6E70020107020205070412090709F
:108B1000D820DEE700201070507041209070DC20DB
:108B2000D7E70FE0002010701020507041209070A7
:108B3000DC20CEE700201070202050704120907083
:108B4000DC20C6E70020107050709070C1E701F083
:108B50001F030D2872D2DFE800F082070F2C4B8232
:108B600082535A626A727A0043F0200010704820E3
:108B700050709370C42039E001F0E000A0280BD0C1
:108B8000C0284FF0210010704FF06000507018BFE7
:108B9000937009D0C02029E021201070602050700F
:108BA00043F020009070F5E743F0E0009070C120A2
:108BB0001CE001F0E000A0280CD0C02843F0200009
:108BC00010704FF0640050700DD001209070C020E4
:108BD000D070704743F02000107064205070212046
:108BE0009070C02002E0E1209070C120D0707047EA
:108BF000581E10700020507021209070E420F5E77E
:108C000000201070507041209070D820EEE70020B6
:108C100010701020507041209070D820E6E700209E
:108C200010702020507041209070D820DEE7002086
:108C30001070507041209070DC20D7E70FE00020CA
:108C400010701020507041209070DC20CEE7002082
:108C500010702020507041209070DC20C6E700206A
:108C6000107050709070C1E7002301F01F010F28B1
:108C70004FD2DFE800F04E084E4E134E4E1920261C
:108C80003239402C4700132040EAC11010704808C8
:108C900040EAC11151709070D370704793201070EA
:108CA0008020507008011DE003201070812050705A
:108CB0009370D370704703201070912050709370A0
:108CC000F7E703201070A12050709370F1E70320A4
:108CD0001070B12050709370EBE72320107080204B
:108CE000507020209070E4E7232010709020507086
:108CF00020209070DDE723201070A02050702020ED
:108D00009070D6E723201070B02050702020907013
:108D1000CFE713705370D2E72DE9F74F44480D4663
:108D2000424C90F804E090F805B090F806A090F856
:108D3000079090F808C0437A817A82B04FF04B08D0
:108D400001273C4EC07A002A84F8008037D02A7868
:108D500062706A78A270AA78E270EA78227184F868
:108D600005E084F806B084F807A084F8089084F839
:108D700009C0A372E172207304F10D02012002996F
:108D8000FFF798FD8020E073072020740097631C94
:108D90001022D6F800C021460120E0470B202070A9
:108DA0000820E073062020740097631C1022D6F878
:108DB00000C021460120E04705B0BDE8F08F4FF02C
:108DC000000884F8018084F8028084F8038084F825
:108DD000048084F805E084F806B084F807A084F8DD
:108DE000089084F809C0A372E172207304F10D02A7
:108DF00001200299FFF75EFD8020E07306202074B9
:108E00000097631C1022D6F800C008490120E047F3
:108E10008B202070CDF800800422D6F800C02B46AD
:108E200002490120E04705B0BDE8F08FBC130020E7
:108E3000FC1300205C0900202DE9F74F384F82B069
:108E40009520DFF8E09038704FF0000A1646CDF814
:108E500000A07B1C0222D9F800C039460120E0475F
:108E600078784FF0150B40F08004B87887F800B0A0
:108E700000F0FE0040F00605002E7C7014BF45F0A7
:108E8000010025F00100B8704FF00108CDF8008016
:108E90007B1CD9F800C0022221494046E04756B168
:108EA00011203870CDF800800422D9F800C01C4988
:108EB0000120039BE0475420387002980F2805D901
:108EC00001467A1C0120FFF7B5FD04E00146FA1CBB
:108ED0000120FFF735FDCDF800807B1C0422D9F876
:108EE00000C00F490120E04756B991203870CDF8F5
:108EF00000A00422D9F800C009490120039BE047E3
:108F000087F800B07C70BD70CDF800807B1C022219
:108F1000D9F800C002490120E04705B0BDE8F08F54
:108F2000BC1300205C0900202DE9F74F074682B0F2
:108F300086484FF0000BADF804B00078DFF81082DF
:108F4000DFF8109214464FF0010A102846D0952001
:108F500088F80000CDF800B00222D9F800C008F16E
:108F6000010341460120E04798F8010040F08005E8
:108F700098F8020000F0FE0040F00606152088F880
:108F80000000002C88F801500CBF26F0010046F0CC
:108F9000010088F80200CDF800A00222D9F800C034
:108FA00008F101036A490120E0475CB1112088F80B
:108FB0000000CDF800A00422D9F800C064490120C7
:108FC000039BE047542088F800000F2F7ED908F15A
:108FD000010239460120FFF7BAFD8CE04FF415403D
:108FE000FFF760FCADF80400CDF800B00222D9F81C
:108FF00000C0574B01A91046E04798F8000040F028
:10900000800598F8010000F0FE0040F006064FF4DD
:10901000A850FFF747FCADF80400002C88F800507A
:1090200014BF46F0010026F0010088F80100CDF8D9
:1090300000A00222D9F800C0454B01A91046E04724
:1090400074B14FF48850FFF72DFCADF80400CDF853
:1090500000A00422D9F800C001A90220039BE04728
:109060000F2F05D93A4A39460120FFF770FD05E078
:1090700008F1020239460120FFF7A4FC4FF4A84092
:10908000FFF710FCADF80400CDF800A00422D9F8D9
:1090900000C02F4B01A90220E04774B94FF41140E2
:1090A000FFF700FCADF80400CDF800B00422D9F8B9
:1090B00000C001A90220039BE0474FF4A850FFF72E
:1090C000F1FBADF8040088F8005000E00DE088F8EE
:1090D0000160CDF800A00222D9F800C01C4B01A904
:1090E0001046E04705B0BDE8F08F08F103023946AD
:1090F0000120FFF767FCCDF800A00422D9F800C0DA
:1091000008F1010312490120E0475CB9912088F879
:109110000000CDF800B00422D9F800C00C490120AD
:10912000039BE047152088F8000088F8015088F874
:109130000260CDF800A00222D9F800C008F10103B6
:1091400003490120E04705B0BDE8F08F4D0900203C
:10915000BC1300205C0900202DE9F74F344F82B08A
:109160009520DFF8D08038704FF0000B1646CDF810
:1091700000B07B1C0222D8F800C039460120E0472D
:1091800078784FF0150A40F08004B87887F800A08E
:1091900000F0FE0040F00605002E7C7014BF45F084
:1091A000010025F00100B8704FF00109CDF80090E2
:1091B0007B1CD8F800C002221D494846E04756B142
:1091C00011203870CDF800900422D8F800C018495A
:1091D0000120039BE047542038707A1C012002993B
:1091E000FFF742FDCDF800907B1C0422D8F800C0A8
:1091F0000F490120E04756B991203870CDF800B0F2
:109200000422D8F800C00A490120039BE04787F8F0
:1092100000A07C70BD70CDF800907B1C0222D8F8B5
:1092200000C003490120E04705B0BDE8F08F000011
:10923000BC1300205C0900202DE9F74F82B0824664
:109240004FF000091646ADF804904FF41540FFF7B3
:1092500029FB3B4FDFF8EC80ADF80400BB1CCDF8D8
:1092600000900222D8F800C001A91046E047B87863
:1092700040F08004F87800F0FE0242F006054FF45A
:10928000A850FFF70FFBADF80400002EBC7014BF10
:1092900045F0010025F00100F8704FF0010BBB1CF8
:1092A000CDF800B00222D8F800C001A91046E0476E
:1092B00076B14FF48850FFF7F5FAADF80400CDF819
:1092C00000B00822D8F800C001A90220039BE047A3
:1092D0004FF4A840FFF7E6FAADF80400BA1C514677
:1092E0000120FFF7C1FCCDF800B0BB1C0422D8F868
:1092F00000C001A90220E04776B94FF41140FFF702
:10930000D1FAADF80400CDF800900822D8F800C0DA
:1093100001A90220039BE0474FF4A850FFF7C2FACF
:10932000ADF80400BC70FD70BB1CCDF800B002228B
:10933000D8F800C001A91046E04705B0BDE8F08F9D
:10934000BC1300205C0900202DE9F041374E88B0A5
:109350000D460024BAB10C683549002341EAC0111A
:109360001A46184600F082FC002331461A460120B6
:1093700000F07CFC08B02146BDE8F04101231A460C
:10938000042000F073BC2B49002341EA00511A4627
:10939000184600F06BFC012331461A46184600F0CF
:1093A00065FC0020CDE90200CDE904001120CDE9E3
:1093B000060404200021CDE902011020CDE90201BC
:1093C00008461021CDE9020100204021CDE902012B
:1093D0000121402004AE02AFCDE90210DFF8588031
:1093E000CDE900762924D8F800C0234607AA06A9AB
:1093F0000520E0470020CDE902000120401EFDD2FB
:10940000CDE90076D8F800C0234607AA06A90520B2
:10941000E047DDE90410890841EA80718008CDE960
:109420000410296008B0BDE8F08100006F00004022
:1094300003200041232800406C090020002300F095
:1094400059BC000038B5174C4B2200F07F00227049
:1094500000226270A270E2702271134A1379637164
:109460005379A3719379E371D3792372137A637279
:10947000537AA372937AE372D27A227304F10D02C3
:10948000FFF718FA8020E07306202074DFF81CC074
:1094900001200090631CDCF800C010222146E04748
:1094A00038BD0000BC130020FC1300205C09002024
:1094B00038B50D4C542210F0800F227005D000F00A
:1094C0007F00621CFFF7B6FA02E0E21CFFF738FAF1
:1094D000DFF818C001200090631CDCF800C00422F3
:1094E0000149E04738BD0000BC1300205C090020A2
:1094F0002DE9F041044621480126214F0078214DF5
:1095000082B0884610280AD05420287014F0800FAA
:1095100025D004F07F006A1CFFF719FB23E04FF40D
:10952000A840FFF7BFF9ADF8040014F0800F06D093
:1095300004F07F00134A4146FFF709FB04E0AA1C30
:1095400041462046FFF73EFA00960422D7F800C0B5
:109550000C4B01A90220E04702B0BDE8F081EA1CF3
:109560002046FFF72FFA00966B1C0422D7F800C0A4
:1095700004490120E04702B0BDE8F0814D09002018
:109580005C090020BC13002038B5094C542200F0BF
:109590007F002270621CFFF767FBDFF818C0012014
:1095A0000090631CDCF800C004222146E04738BD6F
:1095B000BC1300205C09002030B5044683B00D4682
:1095C0004FF4A840FFF76EF9ADF8040004F07F00F7
:1095D000084C2946A21CFFF747FBDFF81CC00120FE
:1095E0000090A31C0422DCF800C001A90220E0477F
:1095F00003B030BDBC1300205C0900202DE9FF47FB
:10960000354F1D461446904601223B686946104678
:109610000C9E9847DFF8C49036B1012E19D0022E67
:109620002CD0032E3FD052E0002D50D00021D9F88D
:1096300000200720904700223B68214602209847DF
:109640000121D9F8002004209047641C6D1EEDD143
:109650003DE06D083BD00021D9F80020082090475C
:1096600000223B682146022098470221D9F80020B9
:1096700004209047A41C6D1EEDD128E0AD0826D033
:109680000021D9F800200920904700223B6821469C
:10969000022098470421D9F8002008469047241D4D
:1096A0006D1EEDD113E0ED0811D00021D9F8002096
:1096B0000D20904700223B68214602209847082150
:1096C000D9F800200420904708346D1EEDD104B075
:1096D000A4EB0800BDE8F0876009002064090020C1
:1096E000002070472DE9FF4782B0DFF8B09042F2CA
:1096F00010700E9FCDE9009000261C46154690463E
:10970000002F08BF48F2031610D0012F04BF49F202
:1097100003165C080AD0022F04BF4AF203169C0805
:1097200004D0032F04BF4BF20316DC0800230122F0
:1097300002A9104600F0DEFA3146202000F0BCFB02
:10974000012000FA07F648F2930040EA0651212072
:1097500000F0B2FB1248006AC0F30730022803D9B8
:109760001049222000F0A8FB49461720CDF80090B0
:1097700000F0A2FB6946162000F03EFB641E08D3F1
:10978000012300222946022000F0B4FA3544641E69
:10979000F6D206B0A5EB0800BDE8F0870010240063
:1097A00094130020730010002DE9FF47354F1D462C
:1097B0001446904601223B68694610460C9E984725
:1097C000DFF8C49036B1012E19D0022E2CD0032E12
:1097D0003FD052E0002D50D001223B6821460220AC
:1097E00098470021D9F800200A2090470121D9F894
:1097F000002004209047641C6D1EEDD13DE06D08F3
:109800003BD001223B682146022098470021D9F82D
:1098100000200B2090470221D9F800200420904717
:10982000A41C6D1EEDD128E0AD0826D001223B68B6
:109830002146022098470021D9F800200C209047AB
:109840000421D9F8002008469047241D6D1EEDD153
:1098500013E0ED0811D001223B6821460220984711
:109860000021D9F800200E2090470821D9F80020C7
:109870000420904708346D1EEDD104B0A4EB08001D
:10988000BDE8F08760090020640900202DE9FF4150
:109890002E491E460A980B7814469046012100274F
:1098A0002B4A01FA00F5002B04BF1168814232D027
:1098B000002808BF274F0DD0012804BF264F760887
:1098C00008D0022804BF254FB60803D0032804BFE0
:1098D000234FF6081060012269461046FFF734FD59
:1098E00000231A461F49184600F0C0F900231A4603
:1098F0003946012000F0BAF948F2930040EA0551D8
:1099000000231A46022000F0B1F9002316491A4636
:10991000032000F0ABF9761E28BFEF1711D3012307
:109920001A460420216800F0A1F90520401EFDD24E
:10993000DDE9001069187841CDE900102C44761E4D
:10994000EDD204B0A4EB0800BDE8F0814F0900207F
:1099500094090020238020002390200023A02000D1
:1099600023B02000032100416F00803F2DE9FF411B
:1099700082B000201C4617460346012200900C9D31
:10998000DFF8A48002A9104600F0B4F9002D04BF4E
:109990002648009011D0012D04D0022D06D0032DB1
:1099A00008D00AE022486408009006E02148A40894
:1099B000009002E02048E40800902020009900F088
:1099C0007BFA012000FA05F648F2930040EA0651BE
:1099D000212000F071FA1948006AC0F3073002280C
:1099E00003D91749222000F067FA002301223946E3
:1099F000022000F07FF94146172000F05DFAF519CA
:109A0000641E08D001231A462946022000F072F98C
:109A10003544641EF6D16946162000F0EDF906B013
:109A2000E81BBDE8F0810000001024002380200026
:109A30002390200023A0200023B0200094130020B6
:109A4000730010000B4A08B54FF00B0C82F800C0F1
:109A5000002904BF4FF08B0C82F800C00346DFF8EA
:109A600018C000911022DCF800C002490120E04734
:109A700008BD0000BC1300205C090020704770473F
:109A8000704770477047704770B50E4618490125FA
:109A9000184C097882B010290FD0174A00280CBF43
:109AA00018201920107000950422D4F800C0334605
:109AB00011490120E04702B070BD0021ADF804104B
:109AC00078B14FF4C850FEF7EDFEADF804000095F4
:109AD0000422D4F800C0334601A90220E04702B0B6
